:020000040800F2
:10000000005000203D400008C10E0008C30E00084B
:10001000C50E0008C70E0008C90E00080000000049
:10002000000000000000000000000000CB0E0008EF
:10003000CD0E000800000000CF0E0008D10E000811
:10004000854000088540000885400008854000087C
:10005000854000088540000885400008854000086C
:10006000854000088540000885400008D90E00083A
:10007000E90E0008F90E0008090F0008190F000822
:10008000854000088540000885400008854000083C
:10009000854000088540000885400008854000082C
:1000A000854000088540000885400008854000081C
:1000B00085400008290F0008854000088540000899
:1000C000854000088540000885400008390F000879
:1000D00085400008490F0008854000088540000859
:1000E00085400008854000088540000800000000A9
:1000F0000000000000000000000000000000000000
:0C01000000000000000000005FF808F1A3
:10010C004FF0FF0C1CEAD0521EBF1CEAD15392EAEE
:10011C000C0F93EA0C0F6FD01A4480EA010C4002CA
:10012C0018BF5FEA41211ED04FF0006343EA501024
:10013C0043EA5111A0FB01310CF00040B1F5000F66
:10014C003EBF490041EAD3715B0040EA010062F115
:10015C007F02FD2A1DD8B3F1004F40EBC25008BFFF
:10016C0020F00100704790F0000F0CF0004C08BF1D
:10017C0049024CEA502040EA51207F3AC2BFD2F1EA
:10018C00FF0340EAC250704740F400004FF00003F8
:10019C00013A5DDC12F1190FDCBF00F00040704732
:1001AC00C2F10002410021FA02F1C2F1200200FA70
:1001BC0002FC5FEA310040F1000053EA4C0308BF37
:1001CC0020EADC70704792F0000F00F0004C02BF88
:1001DC00400010F4000F013AF9D040EA0C0093F003
:1001EC00000F01F0004C02BF490011F4000F013B5D
:1001FC00F9D041EA0C018FE70CEAD15392EA0C0FCB
:10020C0018BF93EA0C0F0AD030F0004C18BF31F035
:10021C00004CD8D180EA010000F00040704790F00B
:10022C00000F17BF90F0004F084691F0000F91F0AF
:10023C00004F14D092EA0C0F01D142020FD193EA75
:10024C000C0F03D14B0218BF084608D180EA0100FD
:10025C0000F0004040F0FE4040F40000704740F0D9
:10026C00FE4040F44000704780F0004002E000BFC8
:10027C0081F0004142001FBF5FEA410392EA030F85
:10028C007FEA226C7FEA236C6AD04FEA1262D2EBCF
:10029C001363C1BFD218414048404140B8BF5B42D4
:1002AC00192B88BF704710F0004F40F4000020F06D
:1002BC007F4018BF404211F0004F41F4000121F083
:1002CC007F4118BF494292EA030F3FD0A2F10102CD
:1002DC0041FA03FC10EB0C00C3F1200301FA03F10B
:1002EC0000F0004302D5494260EB4000B0F5000F2E
:1002FC0013D3B0F1807F06D340084FEA310102F1ED
:10030C000102FE2A51D2B1F1004F40EBC25008BF9E
:10031C0020F0010040EA03007047490040EB000068
:10032C00013A28BFB0F5000FEDD2B0FA80FCACF169
:10033C00080CB2EB0C0200FA0CF0AABF00EBC25096
:10034C0052421843BCBFD0401843704792F0000F84
:10035C0081F4000106BF80F400000132013BB5E7D7
:10036C004FEA41037FEA226C18BF7FEA236C21D04D
:10037C0092EA030F04D092F0000F08BF08467047B2
:10038C0090EA010F1CBF0020704712F07F4F04D180
:10039C00400028BF40F00040704712F100723CBF93
:1003AC0000F50000704700F0004343F0FE4040F4BD
:1003BC00000070477FEA226216BF08467FEA23637B
:1003CC000146420206BF5FEA412390EA010F40F466
:1003DC00800070474FF0000304E000BF10F00043B2
:1003EC0048BF40425FEA000C08BF704743F0964399
:1003FC0001464FF000001CE050EA010208BF7047B4
:10040C004FF000030AE000BF50EA010208BF70473A
:10041C0011F0004302D5404261EB41015FEA010C4F
:10042C0002BF84460146002043F0B64308BFA3F147
:10043C008053A3F50003BCFA8CF2083AA3EBC25329
:10044C0010DB01FA02FC634400FA02FCC2F1200248
:10045C00BCF1004F20FA02F243EB020008BF20F07F
:10046C000100704702F1200201FA02FCC2F12002E5
:10047C0050EA4C0021FA02F243EB020008BF20EADA
:10048C00DC70704710B5054C237833B9044B13B1AD
:10049C000448AFF300800123237010BDA800002096
:1004AC0000000000E040000808B5034B1BB10349F5
:1004BC000348AFF3008008BD00000000AC00002032
:1004CC00E040000800B585B000230193029303932C
:1004DC001748184A02604FF48072826003730375E8
:1004EC004FF40022C26143600223036101F0EEF974
:1004FC00A0B90323019301220292039301A90C4892
:10050C0001F03CF868B902230193029301A9084851
:10051C0001F034F840B905B05DF804FB00F0A0FA26
:10052C00E7E700F09DFAEEE700F09AFAF3E700BF78
:10053C00080100200024014010B586B0002302936E
:10054C0003930493059302681F4B9A4201D006B0A3
:10055C0010BD044603F56C439A6942F400729A612B
:10056C009A6902F400720092009A9A6942F00402AD
:10057C009A619B6903F004030193019B0C23029382
:10058C000323039302A9114801F032FC1048114BCC
:10059C0003600023436083608023C3604FF4807347
:1005AC0003614FF480634361202383614FF48053D4
:1005BC00C36101F09DFA18B9054B23625C62C6E772
:1005CC0000F04EFAF8E700BF00240140000801409B
:1005DC00C40000200800024000B583B01A4B5A69D1
:1005EC0042F001025A615B6903F001030193019B24
:1005FC00002211460B2001F033FA0B2001F040FAD7
:10060C00002211460C2001F02BFA0C2001F038FAD4
:10061C00002211460D2001F023FA0D2001F030FAD2
:10062C00002211460E2001F01BFA0E2001F028FAD0
:10063C00002211460F2001F013FA0F2001F020FACE
:10064C0003B05DF804FB00BF0010024010B584B08D
:10065C00044641F040010902ADF80E100022018958
:10066C00406801F0DAFC224652F80A0B4FF0FF33D7
:10067C00009301230DF10E0102F0EDFB0122218903
:10068C00606801F0CAFC04B010BD10B584B004461B
:10069C0042EA0122ADF80E2000220189406801F0E7
:1006AC00BCFC224652F80A0B4FF0FF330093012397
:1006BC000DF10E0102F0CFFB01222189606801F0DF
:1006CC00ACFC04B010BD10B504460021FFF7BEFF12
:1006DC00A37AA37301212046FFF7B8FFA37AE37333
:1006EC0002212046FFF7B2FFA37A2374042120468F
:1006FC00FFF7ACFFA37AA37405212046FFF7A6FFF2
:10070C00A37AE37406212046FFF7A0FFA37A237592
:10071C0007212046FFF79AFFA37A6375082120462C
:10072C00FFF794FFA37AA37509212046FFF78EFFEC
:10073C00A37AE3750A212046FFF788FFA37A237674
:10074C000B212046FFF782FFA37A63760C2120460B
:10075C00FFF77CFFA37AA3760D212046FFF776FFE7
:10076C00A37AE37610BD10B5044606220421FFF7E8
:10077C008CFF002205212046FFF787FFFF22062170
:10078C002046FFF782FFFF2207212046FFF77DFF5F
:10079C00202208212046FFF778FF2022092120463D
:1007AC00FFF773FFDD220A212046FFF76EFF0022C0
:1007BC000B212046FFF769FF14220C212046FFF77E
:1007CC0064FF01220D212046FFF75FFF10BD08B525
:1007DC0080220421FFF759FF08BD08B580220D21A6
:1007EC00FFF753FF08BD08B501220421FFF74DFFA9
:1007FC0008BD00002DE9F04788B00024049405944E
:10080C00069407944C4B9A6942F010029A619A69CB
:10081C0002F010020092009A9A6942F020029A614A
:10082C009A6902F020020192019A9A6942F004023C
:10083C009A619A6902F004020292029A9A6942F051
:10084C0008029A619B6903F008030393039BDFF88A
:10085C00EC9022463C21484601F0DFFB384E224604
:10086C001221304601F0D9FB364F224643F61701D0
:10087C00384601F0D2FB40F20333049305940694FE
:10088C0004A9484601F0B4FA0C23049301250595FC
:10089C0006944FF00208CDF81C8004A9484601F0DC
:1008AC00A7FACDF8108005950694CDF81C8004A904
:1008BC00304601F09DFA10230493059506944FF0F1
:1008CC00030ACDF81CA00DEB0301304601F090FAA1
:1008DC003023049305950694CDF81CA004A9484632
:1008EC0001F086FA049505950694CDF81CA004A990
:1008FC00384601F07DFA43F61603049305950694E9
:10090C00CDF81C8004A9384601F072FA4CF2200391
:10091C0004930594069404A9384601F069FA4FF43F
:10092C00806304930594069404A9304601F060FAA0
:10093C0008B0BDE8F08700BF001002400010014075
:10094C0000080140000C014038B5224B834200D016
:10095C0038BD214A138801339BB21380B3F5616F04
:10096C002FD21E4C4FF40041204601F04FFB1C4B84
:10097C0018704FF48041204601F048FB194B187059
:10098C00194D0121284601F041FB184B187002212A
:10099C00284601F03BFB164B1870164B1A88164B69
:1009AC005A63164A12889A63154B1A78022120460C
:1009BC0001F033FB134B1A780221134801F02DFB85
:1009CC00C6E71021054801F02EFB034B00221A80CC
:1009DC00C7E700BF9002002038010020000C014046
:1009EC003D0100203C010020001001403B01002093
:1009FC003A01002044010020000400404201002084
:100A0C00400100203E0100200008014038B50E4D89
:100A1C002B881BB20D4AB2F90000181AFFF7DEFC46
:100A2C000B4B1968FFF76CFB0A4C20606B881BB2F0
:100A3C00094AB2F90000181AFFF7D0FC074B1968E5
:100A4C00FFF75EFB606038BD500100209A0000206B
:100A5C009400002048010020980000209000002005
:100A6C0072B6FEE700B595B0282200210DEB02000E
:100A7C0003F003FB00230593069307930893099354
:100A8C00019302930393049309230A934FF4803345
:100A9C000B9301220E9210920222119212934FF498
:100AAC00E01313930AA801F0E3FAE0B90F230593BE
:100ABC0002210691002307934FF480620892099358
:100ACC0005A801F007FD80B9032301934FF40073CF
:100ADC0002934FF40043039301A801F0D7FD30B902
:100AEC0015B05DF804FBFFF7BBFFFFF7B9FFFFF78D
:100AFC00B7FF000080B500F0CBFCFFF7B3FFFFF7AA
:100B0C0079FEFFF769FDFFF7DDFC00F00BF900F053
:100B1C001FFA00F04FFA00F0ADFB00F07BFA00F08A
:100B2C00F5FB00F09DF801221021424801F075FA06
:100B3C00414D01221021284601F06FFA012220219B
:100B4C00284601F06AFA3D4C01221146204601F07C
:100B5C0064FA012000F0C0FC01220421284601F0B7
:100B6C005CFA01224FF40051204601F056FA0122A2
:100B7C000421204601F051FA01224FF40061204675
:100B8C0001F04BFA012000F0A7FC2D4F3846FFF77F
:100B9C00EAFD2C4E3046FFF7E6FD2B4D2846FFF7BD
:100BAC00E2FD2A4C2046FFF7DEFD3846FFF71BFE20
:100BBC003046FFF718FE2846FFF715FE2046FFF7D4
:100BCC0012FE3846FFF77FFD3046FFF77CFD2846C6
:100BDC00FFF779FD2046FFF776FD3846FFF7FDFD60
:100BEC003046FFF7FAFD2846FFF7F7FD2046FFF7E2
:100BFC00F4FD3846FFF7EBFD3046FFF7E8FD2846DD
:100C0C00FFF7E5FD2046FFF7E2FD114B002159638C
:100C1C009963104C204602F0BFFE0421204602F0DE
:100C2C00BBFE204602F09CFB02220B490B4800F055
:100C3C0089FDFEE70008014000100140000C014056
:100C4C006C00002048000020240000200000002040
:100C5C0000040040900200205001002008010020F8
:100C6C0000B583B00023ADF804308DF80630009346
:100C7C001A481B4B03604FF0FF3343604FF48073F3
:100C8C00836001F0AFFF00BB12238DF804308DF8A8
:100C9C0005308DF80630012201A9104801F0BBFE89
:100CAC00B0B906238DF8003003238DF801300122F2
:100CBC008DF8022025238DF803306946074801F092
:100CCC000BFF40B903B05DF804FBFFF7C9FEDBE78F
:100CDC00FFF7C6FEE5E7FFF7C3FEF3E7540100207C
:100CEC000028004002680C4B9A4200D0704700B5B7
:100CFC0083B001F0A1F9094BDA6942F00062DA61C4
:100D0C00DB6903F000630193019B054B0122C3F8DF
:100D1C003C2403B05DF804FB0028004000100240A6
:100D2C000000424208B50F480F4B03604FF482732A
:100D3C004360002383604FF40062C26003610122B0
:100D4C0042614FF4007282612822C26103624362E5
:100D5C0083620A23C36202F023F800B908BDFFF7CF
:100D6C007FFEFBE7F00100200030014070B586B03B
:100D7C00002302930393049305930268364B9A4223
:100D8C0001D006B070BD044603F560439A6942F485
:100D9C0080529A619A6902F480520092009A9A6980
:100DAC0042F004029A619B6903F004030193019BD6
:100DBC00A02302930223039303230593274E02A936
:100DCC00304601F015F84023029300250395049555
:100DDC0002A9304601F00CF82148224B0360456013
:100DEC0085608023C3604FF4807303614FF480638C
:100DFC00436185614FF48053C36100F079FE20BBE1
:100E0C00174BE3645C621848184B03601023436073
:100E1C00002383608022C2604FF4807202614FF421
:100E2C008062426183614FF48053C36100F060FEC5
:100E3C0070B90D4BA3645C6200221146232000F0B4
:100E4C000FFE232000F01CFE9BE7FFF709FED7E7FF
:100E5C00FFF706FEEDE700BF00300140000801403F
:100E6C00AC0100201C000240680100203000024050
:100E7C0082B00E4B9A6942F001029A619A6902F0B3
:100E8C0001020092009ADA6942F08052DA61DB6961
:100E9C0003F080530193019B054A536823F0E063F0
:100EAC0043F00073536002B0704700BF0010024063
:100EBC0000000140FEE7FEE7FEE7FEE7FEE77047B5
:100ECC007047704708B500F0F5FA08BD08B5024840
:100EDC0000F0ECFE08BD00BFC400002008B50248BD
:100EEC0000F0E4FE08BD00BFAC01002008B50248CC
:100EFC0000F0DCFE08BD00BF6801002008B5024808
:100F0C0000F0D4FE08BD00BFAC03002008B50248B9
:100F1C0000F0CCFE08BD00BF6803002008B50248F5
:100F2C0002F056FA08BD00BF9002002008B5024836
:100F3C0002F0BCF808BD00BFF001002008B5024863
:100F4C0002F034FF08BD00BFF00300207047000022
:100F5C0000B58DB02422002103A803F08EF80023E5
:100F6C00019302931148124A0260436083604FF66A
:100F7C00FF72C26003614361836101230393059394
:100F8C00099303A902F06EFB50B90023019302935D
:100F9C0001A9064802F06EFD28B90DB05DF804FBFE
:100FAC00FFF75EFDF1E7FFF75BFDF6E7200300209E
:100FBC00002C014000B58DB02422002103A803F0C1
:100FCC005CF800230193029311484FF080420260B9
:100FDC00436083604FF6FF72C2600361836101233B
:100FEC0003930593099303A902F03CFB50B900232A
:100FFC000193029301A9064802F03CFD28B90DB0FB
:10100C005DF804FBFFF72CFDF1E7FFF729FDF6E790
:10101C00D802002000B587B00023049305930093F9
:10102C000193029303931B481B4A02604360836045
:10103C004FF6FF72C2600361836102F0E7FAE0B918
:10104C0000230493059304A9124802F013FDB8B9C8
:10105C000023009301220192029303930822694614
:10106C000C4802F023FC70B90C226946094802F0C6
:10107C001DFC58B907B05DF804FBFFF7F1FCDFE786
:10108C00FFF7EEFCE4E7FFF7EBFCEDE7FFF7E8FC1E
:10109C00F0E700BF480200200008004000B58BB00C
:1010AC000023069307930893099303682D4A9342F0
:1010BC0005D0B3F1804F1DD00BB05DF804FB2A4B6B
:1010CC009A6942F400629A619A6902F40062019290
:1010DC00019A9A6942F004029A619B6903F0040335
:1010EC000293029B4FF44073069306A91F4800F02D
:1010FC007FFEE1E703F50433DA6942F00102DA61BD
:10110C00DA6902F001020392039A9A6942F004022E
:10111C009A619A6902F004020492049A9A6942F064
:10112C0008029A619B6903F008030593059B4FF431
:10113C000043069306A90D4800F05AFE08230693B7
:10114C0000230793089306A9094800F051FE094AA9
:10115C00536823F4407343F0E06343F480735360AB
:10116C00AAE700BF002C014000100240000801401B
:10117C00000C01400000014002680E4B9A4200D066
:10118C00704700B583B003F50333DA6942F002020D
:10119C00DA61DB6903F002030193019B0022114623
:1011AC001D2000F05DFC1D2000F06AFC03B05DF812
:1011BC0004FB00BF0004004000B587B0002302937D
:1011CC000393049305930268104B9A4202D007B024
:1011DC005DF804FB03F50233DA6942F00402DA61CC
:1011EC00DA6902F004020092009A9A6942F008024D
:1011FC009A619B6903F008030193019B4FF44073C0
:10120C00029302A9024800F0F3FDE0E70008004059
:10121C00000C014000B587B00023029303930493A4
:10122C0005930268104B9A4202D007B05DF804FB9C
:10123C0003F503339A6942F010029A619B6903F03B
:10124C0010030193019BC023029302230393059384
:10125C0002A9064800F0CCFD054A536843F0E06350
:10126C0043F440635360E0E7000400400010014089
:10127C000000014000B58BB0002308930993019343
:10128C000293039304930593069307931D481E4AF8
:10129C00026003224260836040F2E732C260036165
:1012AC00836102F087F900BB202308930023099384
:1012BC0008A9144802F0DEFBD0B960230193002288
:1012CC0002920392059201A90E4802F055FA90B9C8
:1012DC0004220DEB02010B4802F04EFA70B90948DA
:1012EC00FFF798FF0BB05DF804FBFFF7B9FBDBE7EA
:1012FC00FFF7B6FBE1E7FFF7B3FBE9E7FFF7B0FB5E
:10130C00EDE700BF900200200004004008B50A4839
:10131C000A4B03604FF4E133436000238360C360E6
:10132C0003610C2242618361C36102F083FC00B94A
:10133C0008BDFFF795FBFBE7F003002000380140E8
:10134C00F0B587B0002302930393049305930268CE
:10135C00354B9A4201D007B0F0BD044603F5584313
:10136C009A6942F480429A619A6902F4804200922E
:10137C00009A9A6942F008029A619B6903F008038B
:10138C000193019B402302930223039303230593B0
:10139C00264F02A9384600F02BFD80260296002528
:1013AC000395049502A9384600F022FD204A5368A3
:1013BC0043F0E06343F0040353601E481E4B03608C
:1013CC00102343608560C6600561456185614FF4FB
:1013DC000053C36100F08CFBF8B9164BA3635C623D
:1013EC001648174B03600023436083608022C26061
:1013FC000361436183614FF40053C36100F078FBD8
:10140C0070B90E4BE3635C6200221146252000F09C
:10141C0027FB252000F034FB9DE7FFF721FBDCE7E1
:10142C00FFF71EFBEDE700BF00380140000C014048
:10143C0000000140AC03002044000240680300207F
:10144C005800024010B504460E4B1A784FF47A73CC
:10145C00B3FBF2F30C4A1068B0FBF3F000F01EFB88
:10146C0068B90F2C01D901200AE0002221464FF067
:10147C00FF3000F0F5FA054B1C60002000E0012065
:10148C0010BD00BFA00000209C000020A400002084
:10149C0008B5074A136843F010031360032000F0EB
:1014AC00CDFA0F20FFF7CEFFFFF7E2FC002008BDBE
:1014BC0000200240034A1168034B1B780B44136055
:1014CC00704700BF38040020A0000020014B1868B2
:1014DC00704700BF3804002038B50446FFF7F6FF0C
:1014EC000546B4F1FF3F02D0044B1B781C44FFF7B8
:1014FC00EDFF401BA042FAD338BD00BFA000002076
:10150C0008B5436A9A6A12F0500F1ED19A6A42F4D7
:10151C0000729A621A68926802F46022B2F5602F27
:10152C0003D01846FFF772FA08BD1A7B002AF8D1CF
:10153C009A6A22F480729A629A6A12F4805FF0D1ED
:10154C009A6A42F001029A62EBE71B6A1B6B98479E
:10155C00EAE7704708B5406AFFF7FBFF08BD704724
:10156C0008B5406A836A43F040038362C36A43F060
:10157C000403C362FFF7F3FF08BD000030B482B070
:10158C000022019290F82420012A00F08F8003465B
:10159C00012280F824204A68062A2DD80468606B42
:1015AC0002EB8202053A4FF01F0C0CFA02FC20EA07
:1015BC000C000D6805FA02F2024362630A68092AFC
:1015CC0038D91C68E06802EB42021E3A4FF0070C57
:1015DC000CFA02FC20EA0C008D6805FA02F20243B8
:1015EC00E2600A68103A012A34D90020002283F8FC
:1015FC00242002B030BC70470C2A0DD80568286B2B
:10160C0002EB8202233A1F24944020EA04000C6867
:10161C00944020432863D1E70568E86A02EB820214
:10162C00413A1F24944020EA04000C689440204363
:10163C00E862C3E71C68206902EB42024FF0070C1A
:10164C000CFA02FC20EA0C008D6805FA02F2024347
:10165C002261C6E71A681648824205D09A6A42F09F
:10166C0020029A620120C1E7906810F4000F1BD190
:10167C00906840F4000090600A68102A01D00020A5
:10168C00B4E70C4A12680C49A1FB0212920C02EB53
:10169C0082025200019202E0019A013A0192019AEF
:1016AC00002AF9D10020A1E700209FE70220A0E743
:1016BC00002401409C00002083DE1B4330B583B026
:1016CC000023019303689A6812F0010F33D104468A
:1016DC009A6842F001029A60184B1B68184AA2FBE8
:1016EC0003239B0C019302E0019B013B0193019BA3
:1016FC00002BF9D1FFF7EAFE054623689B6813F02F
:10170C00010F16D1FFF7E2FE431B022BF5D923681C
:10171C009B6813F0010FF0D1A36A43F01003A3628E
:10172C00E36A43F00103E362002384F824300120D0
:10173C0002E0002000E0002003B030BD9C0000203F
:10174C0083DE1B43F8B504460D4616460168444833
:10175C00814259D0434B994256D094F82430012BF6
:10176C007CD0012384F824302046FFF7A7FF0746DE
:10177C0000286ED1A16A21F4706121F0010141F4BD
:10178C008071A1622268374B9A4244D0A36A23F439
:10179C008013A362536813F4806F05D0A36A23F4FB
:1017AC00405343F48053A362A36A13F4805F48D080
:1017BC00E36A23F00603E362002384F82430236AEF
:1017CC00294A9A62236A294ADA62236A284A1A63E6
:1017DC0023686FF002021A602268936843F48073E6
:1017EC009360216833462A464C31206A00F0B4F9E4
:1017FC0023689A6802F46022B2F5602F24D09A68AC
:10180C0042F480129A6027E0154B5B6813F4702F3A
:10181C00A3D0012720E0A3F580635B6813F4702F3D
:10182C00B4D0A36A43F48013A3620D4B5B6813F42A
:10183C00806FB9D0A36A23F4405343F48053A3625E
:10184C00B2E70023E362B7E79A6842F4A0029A6019
:10185C0002E0002384F824303846F8BD0227FBE769
:10186C0000240140002801400D15000861150008F6
:10187C006D15000838B503689A6812F0010F01D194
:10188C00002038BD04469A6822F001029A60FFF7E6
:10189C001DFE054623689B6813F0010F13D0FFF75C
:1018AC0015FE431B022BF5D923689B6813F0010F1F
:1018BC00F0D0A36A43F01003A362E36A43F0010380
:1018CC00E3620120DDE70020DBE7000000287BD08D
:1018DC0070B50446836A002B4DD02046FFF7CAFF33
:1018EC00A36A13F0100369D1002867D1A26A22F40D
:1018FC00885222F0020242F00202A2626268E1699E
:10190C000A43217B42EA4102A568B5F5807F02D0EB
:10191C00012D36D01D46267D012E35D026687168E6
:10192C0021F46941294371602568AE68274931402B
:10193C001143A960A168B1F5807F01D0012902D1C2
:10194C002369013B1B052568E96A21F470010B43EF
:10195C00EB62236899681E4B0B409A4225D0A36A10
:10196C0023F0120343F01003A362E36A43F0010374
:10197C00E362012027E0C36280F82430FEF7DCFD2F
:10198C00ABE74FF48075C6E731B9A169013945EA77
:10199C00413141F40065C1E7A16A41F02001A16227
:1019AC00E16A41F00101E162B8E70023E362A36A56
:1019BC0023F0030343F00103A36204E0A36A43F0A2
:1019CC001003A362012070BD01207047FDF7E1FFF9
:1019DC00FE0E1FFF002808DB0901C9B200F16040B0
:1019EC0000F5614080F80013704700F00F0009010A
:1019FC00C9B2014B1954704714ED00E000B500F06A
:101A0C000700C0F1070CBCF1040F28BF4FF0040C09
:101A1C00031D062B0FD9C31E4FF0FF3E0EFA0CF020
:101A2C0021EA000199400EFA03FE22EA0E0241EA75
:101A3C0002005DF804FB0023EEE70000074AD368C0
:101A4C0023F4E0631B041B0C000200F4E06003436E
:101A5C0043F0BF6343F40033D360704700ED00E004
:101A6C0010B50446054BD868C0F30220FFF7C6FF3B
:101A7C0001462046FFF7AEFF10BD00BF00ED00E0B1
:101A8C00002807DB00F01F02400901239340024AA3
:101A9C0042F82030704700BF00E100E00138B0F19F
:101AAC00807F0BD24FF0E0235861054AF02182F879
:101ABC0023100020986107221A617047012070479B
:101ACC0000ED00E030B40124056CAC40C56B6C60DB
:101ADC00046863604368102B05D003689960036841
:101AEC00DA6030BC704703689A600368D960F8E725
:101AFC0050B310B402460168144B0B441448A0FBBD
:101B0C0003031B099B001364124BD363022382F85B
:101B1C00213008686FF30D10536894682343D46820
:101B2C002343146923435469234394692343D4699D
:101B3C00234303430B6000209063012382F8213080
:101B4C0082F8200010BC704701207047F8FFFDBFE1
:101B5C00CDCCCCCC0000024038B5044690F8200027
:101B6C00012832D0012084F8200094F82100C0B262
:101B7C00012804D0002384F82030022038BD022034
:101B8C0084F821000020A0632568286820F001005B
:101B9C0028602046FFF796FFE36A5BB12268136862
:101BAC0043F00E0313602268136843F001031360C3
:101BBC000020E3E72268136823F004031360226813
:101BCC00136843F00A031360EDE70220D6E70346DF
:101BDC0090F82120D2B2022A06D00422826300227D
:101BEC0080F820200120704701680A6822F00E025C
:101BFC000A6001680A6822F001020A60026CC06B7C
:101C0C00012101FA02F2426083F82110002083F8CE
:101C1C002000704708B590F82130DBB2022B03D0BE
:101C2C0004238363012008BD0268136823F00E03AC
:101C3C0013600268136823F0010313600368194AE8
:101C4C00934214D0143293421FD0143293421ED0BC
:101C5C00143293421ED0143293421ED0143293424B
:101C6C0002D04FF0807203E04FF4801200E00122AA
:101C7C000D4B5A60012380F82130002380F820306E
:101C8C00436B6BB198470020CDE71022F0E74FF47F
:101C9C008072EDE74FF48052EAE74FF48032E7E7C9
:101CAC000020C0E7080002400000024038B5C36BBA
:101CBC001A6804682568016C04238B40134235D0E4
:101CCC0015F0040F32D0236813F0200F03D12368D2
:101CDC0023F0040323600368434A934214D0143264
:101CEC00934218D01432934217D01432934217D027
:101CFC001432934217D01432934202D04FF08062C8
:101D0C0003E04FF4800200E00422384B5A60C36AAF
:101D1C0003B1984738BD4022F7E74FF48062F4E7EF
:101D2C004FF48042F1E74FF48022EEE702238B4020
:101D3C0013423CD015F0020F39D0236813F0200F5A
:101D4C0006D1236823F00A032360012380F8213095
:101D5C000368254A934214D0143293421CD0143297
:101D6C0093421BD0143293421BD0143293421BD09B
:101D7C001432934202D04FF0007203E04FF4001281
:101D8C0000E00222194B5A60002380F82030836A4D
:101D9C00002BBFD09847BDE72022F3E74FF4007229
:101DAC00F0E74FF40052EDE74FF40032EAE7082376
:101DBC008B401342AED015F0080FABD0236823F044
:101DCC000E032360026CC16B012303FA02F24A601A
:101DDC00836380F82130002380F82030036B002BC4
:101DEC0098D0984796E700BF0800024000000240D8
:101DFC0070B582B00024A446A1E07E4DAB4214D055
:101E0C000CD8A5F58015AB420FD005F57025AB426B
:101E1C000BD0A5F58015AB4210D106E0764DAB4248
:101E2C0003D005F58035AB4208D18B68002B50D020
:101E3C00012B49D04261082400E0CC68BEF1FF0FB1
:101E4C0049D806464FEA8C0233680F25954023EAA1
:101E5C00050304FA02F2134333604B6813F0805FFE
:101E6C006BD0664B9A6942F001029A619B6903F050
:101E7C0001030193019B4FEA9C02951C604B53F8A4
:101E8C0025600CF00305AD000F23AB4026EA0306DA
:101E9C005C4B984226D003F58063984200F08C800E
:101EAC0003F58063984200F0898003F580639842C3
:101EBC0016D0042317E0CC680434BFE7CC68083490
:101ECC00BCE7CC680C34B9E702610824B6E70024FF
:101EDC00B4E70424B2E7061DACF108029200B3E7A4
:101EEC00032300E00023AB4033430232444D45F85A
:101EFC0022304B6813F4801F62D0434A936843EA44
:101F0C000E0393604B6813F4001F5FD03E4AD368F6
:101F1C0043EA0E03D3604B6813F4003F5CD03A4A9B
:101F2C00536843EA0E0353604B6813F4803F59D057
:101F3C00354A136843EA0E0313600CF1010C0B686D
:101F4C0033FA0CF254D0012202FA0CF203EA020E1C
:101F5C0032EA0303F1D14B68122B3FF64EAF122B32
:101F6C003FF66CAF01A555F823F000BF371E0008F3
:101F7C00471E0008C91E0008DB1E0008491E000889
:101F8C00491E0008491E0008491E0008491E000889
:101F9C00491E0008491E0008491E0008491E000879
:101FAC00491E0008491E0008491E0008491E000869
:101FBC00C31E0008CF1E0008012394E7022392E7FA
:101FCC00114A936823EA0E0393609BE70E4AD36889
:101FDC0023EA0E03D3609EE70B4A536823EA0E03F1
:101FEC005360A1E7084A136823EA0E031360A4E7C1
:101FFC0002B070BD00002210000031100010024031
:10200C0000000140000801400004014083681942AF
:10201C0001D001207047002070470AB10161704760
:10202C00090401617047C36801EA030221EA030154
:10203C0041EA024101617047014B01221A6270476B
:10204C0000000E4282B0084B1B68084AA2FB032317
:10205C005B0A00FB03F3019300BF019B5A1E019224
:10206C00002BF9D102B070479C000020D34D6210B8
:10207C00002800F0F18170B582B00446036813F0BB
:10208C00010F2CD0994B5B6803F00C03042B1DD073
:10209C00964B5B6803F00C03082B12D06368B3F506
:1020AC00803F41D0002B55D103F1804303F504331D
:1020BC001A6822F480321A601A6822F480221A609C
:1020CC0037E08A4B5B6813F4803FE7D0874B1B6883
:1020DC0013F4003F03D06368002B00F0BF8123682A
:1020EC0013F0020F75D0814B5B6813F00C0F5FD0AF
:1020FC007E4B5B6803F00C03082B54D02369002B38
:10210C0000F08A807A4B01221A60FFF7DFF905464E
:10211C00764B1B6813F0020F75D1FFF7D7F9401BF4
:10212C000228F5D903209EE1704A136843F48033EA
:10213C001360636843B3FFF7C9F905466B4B1B6823
:10214C0013F4003FCBD1FFF7C1F9401B6428F5D93C
:10215C00032088E1B3F5A02F09D0644B1A6822F450
:10216C0080321A601A6822F480221A60E1E703F1C7
:10217C008043A3F53C331A6842F480221A601A6833
:10218C0042F480321A60D4E7FFF7A0F90546574BAA
:10219C001B6813F4003FA2D0FFF798F9401B64288A
:1021AC00F5D903205FE1514B5B6813F4803FA5D157
:1021BC004E4B1B6813F0020F03D02369012B40F028
:1021CC004F814A4A136823F0F803616943EAC1035B
:1021DC001360236813F0080F33D0A369002B5CD075
:1021EC00434B0122C3F88024FFF770F905463F4B9F
:1021FC005B6A13F0020F21D1FFF768F9401B02282C
:10220C00F5D903202FE1394A136823F0F8036169EB
:10221C0043EAC1031360DCE7354B00221A60FFF779
:10222C0055F90546314B1B6813F0020FD1D0FFF75F
:10223C004DF9401B0228F5D9032014E10120FFF7CA
:10224C0001FF236813F0040F00F09680274BDB6925
:10225C0013F0805F34D1254BDA6942F08052DA6199
:10226C00DB6903F080530193019B0125214B1B6813
:10227C0013F4807F26D0E368012B3DD0002B53D183
:10228C0003F1804303F504331A6A22F001021A6247
:10229C001A6A22F004021A6233E0154B0022C3F8CA
:1022AC008024FFF713F90546104B5B6A13F0020FFD
:1022BC00C7D0FFF70BF9401B0228F5D90320D2E059
:1022CC000025D3E70B4A136843F480731360FFF7C0
:1022DC00FDF80646074B1B6813F4807FCBD1FFF744
:1022EC00F5F8801B6428F5D90320BCE000100240EF
:1022FC0000004242007000405F4A136A43F0010341
:10230C001362E36833B3FFF7E1F806465A4B1B6AD6
:10231C0013F0020F2FD1FFF7D9F8801B41F288334D
:10232C009842F3D903209EE0052B09D0524B1A6A30
:10233C0022F001021A621A6A22F004021A62E0E721
:10234C004D4B1A6A42F004021A621A6A42F00102F8
:10235C001A62D6E7FFF7BAF80646474B1B6A13F02A
:10236C00020F08D0FFF7B2F8801B41F28833984275
:10237C00F3D9032077E0E5B9E369002B72D03E4A2C
:10238C00526802F00C02082A56D0022B17D03B4B95
:10239C0000221A66FFF79AF80446374B1B6813F0B5
:1023AC00007F47D0FFF792F8001B0228F5D90320D5
:1023BC0059E0314AD36923F08053D361DCE72F4BCA
:1023CC0000221A66FFF782F805462B4B1B6813F0A8
:1023DC00007F06D0FFF77AF8401B0228F5D90320BE
:1023EC0041E0236AB3F5803F1AD023494B6823F4AC
:1023FC007413226A606A024313434B601F4B012221
:10240C001A66FFF763F804461B4B1B6813F0007F3A
:10241C000ED1FFF75BF8001B0228F5D9032022E050
:10242C00154A536823F40033A1680B435360DCE76F
:10243C00002018E0002016E0012B16D00E4B5B6834
:10244C0003F48031226A914211D103F47013626A51
:10245C0093420ED1002006E001207047012002E0DB
:10246C00012000E0002002B070BD0120FBE701203C
:10247C00F9E70120F7E700BF0010024000004242DC
:10248C000F4B5B6803F00C02082A01D00D48704713
:10249C00C3F383420C49885C13F4803F0BD0084B88
:1024AC005B68C3F34043094AD35C064A02FB00F065
:1024BC00B0FBF3F07047064B03FB00F0704700BF16
:1024CC000010024000127A0014410008104100086C
:1024DC0000093D00002800F0A08070B50D460446B0
:1024EC00524B1B6803F007038B420BD24F4A136805
:1024FC0023F007030B431360136803F007038B42AD
:10250C0040F08D80236813F0020F17D013F0040FE6
:10251C0004D0474A536843F4E0635360236813F0D4
:10252C00080F04D0424A536843F460535360404A46
:10253C00536823F0F003A1680B435360236813F036
:10254C00010F31D06368012B20D0022B25D0384AE3
:10255C00126812F0020F64D035494A6822F0030267
:10256C0013434B60FEF7B2FF0646314B5B6803F03A
:10257C000C036268B3EB820F16D0FEF7A7FF801B2B
:10258C0041F288339842F0D9032045E0284A12687A
:10259C0012F4003FE0D101203EE0254A126812F00F
:1025AC00007FD9D1012037E0204B1B6803F00703D3
:1025BC00AB420AD91D4A136823F007032B4313605F
:1025CC00136803F00703AB422DD1236813F0040FFB
:1025DC0006D0174A536823F4E063E1680B43536059
:1025EC00236813F0080F07D0114A536823F4605383
:1025FC00216943EAC1035360FFF742FF0C4B5B6850
:10260C00C3F303130B4AD35CD8400B4B18600B4B32
:10261C001868FEF717FF002070BD012070470120DD
:10262C00FAE70120F8E70120F6E700BF002002409E
:10263C0000100240004100089C000020A400002073
:10264C00014B1868704700BF9C00002008B5FFF7CD
:10265C00F7FF044B5B68C3F30223034AD35CD840F7
:10266C0008BD00BF00100240F840000808B5FFF795
:10267C00E7FF044B5B68C3F3C223034AD35CD84027
:10268C0008BD00BF00100240F840000870B582B0D1
:10269C000446036813F0010F36D03F4BDB6913F08F
:1026AC00805F49D13C4BDA6942F08052DA61DB69D8
:1026BC0003F080530193019B0125384B1B6813F4E5
:1026CC00807F3BD0344B1B6A13F4407313D0626889
:1026DC0002F440729A420ED02F4A136A23F44070CF
:1026EC002F490126C1F840640026C1F840641062ED
:1026FC0013F0010F36D1284A136A23F44073616832
:10270C000B431362002D3ED1236813F0020F06D049
:10271C00214A536823F44043A1680B435360236858
:10272C0013F0100F34D01C4A536823F48003E16873
:10273C000B43536000202CE00025BEE7174A1368BA
:10274C0043F480731360FEF7C1FE0646134B1B68FF
:10275C0013F4807FB6D1FEF7B9FE801B6428F5D93F
:10276C00032016E0FEF7B2FE06460B4B1B6A13F075
:10277C00020FC0D1FEF7AAFE801B41F288339842AB
:10278C00F3D9032005E0D36923F08053D361BBE771
:10279C00002002B070BD00BF00100240007000406D
:1027AC000000424208B502284ED0102803D0012860
:1027BC0028D0002052E02B4B5A68186810F080701B
:1027CC004CD0C2F383432849C85C12F4803F15D027
:1027DC00244B5B68C3F34043244AD25C244BB3FBC9
:1027EC00F2F303FB00F01F4B5B6813F4800F35D141
:1027FC004000204BA3FB003040082FE01E4B03FB96
:10280C0000F0F0E7174B1B6A40F202321A40B2F5A7
:10281C00817F24D003F44073B3F5007F04D0B3F56B
:10282C00407F09D0002019E00E4A526A12F0020FC4
:10283C00F5D049F6404011E00A4B186810F400300E
:10284C000CD04FF2244009E0FFF710FF054B5B68FA
:10285C00C3F3813301335B00B0FBF3F008BD4FF4DD
:10286C000040FBE70010024028410008244100080A
:10287C0000127A00ABAAAAAA00093D0000B50368B1
:10288C0099691FFA81FED8699A691FFA82FCE6459C
:10289C0005D0D86980B240EA02405DF804FB80B2F2
:1028AC0040EA0140F9E70368186A5B6A9BB243EAA5
:1028BC0000407047030903EB830300F00F0000EBAB
:1028CC004300C0B27047000000F5FA6C022921D811
:1028DC0001EB4103C1EBC3011E4BA3FB013102EB26
:1028EC005103634400F2CF7003EB90031A4AA2FB2E
:1028FC000020A3EB501303EBD01304331748A0FBB9
:10290C0003201A1A00EB52008008C0EBC000181A02
:10291C00C0B2704701EB4103C1EBC3010D4BA3FBEC
:10292C00013102EB5103634403EB9C030A4AA2FB03
:10293C000C12A3EB521303EBD21302330748A0FB88
:10294C0003201A1A00EB52008008C0EBC000181AC2
:10295C00DEE700BF398EE3381F85EB512549922401
:10296C0038B50446FEF7B2FD054623685A6812F0E6
:10297C00200F07D1FEF7AAFD401BB0F57A7FF4D9E2
:10298C00032004E05A6842F010025A60002038BD5F
:10299C0038B504460268536823F010035360FEF701
:1029AC0095FD054623685B6813F0200F07D1FEF7F1
:1029BC008DFD401BB0F57A7FF4D9032000E0002098
:1029CC0038BD38B505460C46FFF7CAFF08B10120E3
:1029DC0038BD2B68220C9A612B68A4B2DC612846A6
:1029EC00FFF7D6FF0028F3D00120F1E738B50546F4
:1029FC000C46FFF7B5FF08B1012038BD2B68220C3F
:102A0C001A622B68A4B25C622846FFF7C1FF00284B
:102A1C00F3D00120F1E770B5002857D00D460646DB
:102A2C00002955D0037C012B54D0012303740223BD
:102A3C004374BAB90B784C78C4EB0414A4004FF46B
:102A4C00616202FB03448B781C4421463046FFF73D
:102A5C00B8FF0546C8B104237374002333740125F1
:102A6C00284670BD0878FFF725FF4FF4616303FB20
:102A7C0000F46878FFF71EFFC0EB001004EB800435
:102A8C00A878FFF717FF0444DFE73268536823F098
:102A9C00050353603046FFF706FFB0F1FF3F01D04E
:102AAC00844204D80123737400233374D8E700F5EF
:102ABC00A83101F5C0713046FFF798FF0028F1D01E
:102ACC0004237374002333740125C9E70125C7E778
:102ADC000125C5E70225C3E700285AD038B50D46B5
:102AEC000446002957D0037C012B56D001230374D4
:102AFC0002234374BAB9CB78C3734B7843738B7886
:102B0C008373A27B617BE07BFFF7DEFE2073287072
:102B1C002046FFF7B3FE224B984211D80123637471
:102B2C000020207438BDC878FFF7C4FEE0736878C5
:102B3C00FFF7C0FE6073A878FFF7BCFEA073E0E758
:102B4C00184DA5FB00352D0C174B03FB150529461D
:102B5C002046FFF736FF28B1042363740023237447
:102B6C000120DFE72046FFF79EFEB0F1FF3FD5D0F6
:102B7C008542D3D900F5A83101F5C0712046FFF785
:102B8C0035FF0028CAD0042363740023237401206A
:102B9C00C8E7012070470120C4E70220C2E700BF4C
:102BAC008F5F010007452EC280510100C0B138B5BE
:102BBC0005460268536823F008035360FEF786FC51
:102BCC0004462B685B6813F0080F07D1FEF77EFCF8
:102BDC00001BB0F57A7FF4D9032000E0002038BD4B
:102BEC0001207047002850D010B50446437C4BB1EF
:102BFC00022363742046FFF7D9FF38B104236374B2
:102C0C00012010BD0374FEF76DF8F1E72046FFF7C5
:102C1C00A7FE28BB2268536823F007035360A36800
:102C2C0023B11B4A136B23F001031363184AD36AB5
:102C3C0023F46073A1680B43D3626368B3F1FF3F65
:102C4C0012D02268C3F30341916022689BB2D36017
:102C5C002046FFF79DFE88B1042363740120D0E762
:102C6C00042363740120CCE70120FFF79BFD08B11E
:102C7C00431EE6E7042363740120C2E70023E373D9
:102C8C0001236373A3736374BBE70120704700BF18
:102C9C00006C00402DE9F04782B005468846174687
:102CAC001E46FEF713FC0A9B1B1A03EB0609FEF7E4
:102CBC000DFC8246284B1B68C3F3CB3309FB03F393
:102CCC0001932B689C6838EA04040CBF0123002391
:102CDC00BB423DD0B6F1FF3FF3D0FEF7F7FBA0EBC4
:102CEC000A00484507D2019A02B14A46019B013BB2
:102CFC0001939146E5E72A68536823F0E00353609B
:102D0C006B68B3F5827F0BD0AB6AB3F5005F14D060
:102D1C00012385F85130002385F85030032018E04A
:102D2C00AB68B3F5004F02D0B3F5806FECD12A68D5
:102D3C00136823F040031360E6E72A68136823F452
:102D4C00005313602A68136843F400531360DFE7E1
:102D5C00002002B0BDE8F0879C00002070B582B066
:102D6C0006460C46154600920B4601220221FFF73F
:102D7C0091FF48B900952346002280213046FFF789
:102D8C0089FF38B902B070BD736D43F020037365D1
:102D9C000320F7E7736D43F0200373650320F1E71D
:102DAC00002856D010B50446436A33B94368B3F5CE
:102DBC00827F05D00023C36102E0002303614361DD
:102DCC000023A36294F85130002B3CD0022384F8EA
:102DDC0051302268136823F040031360636803F4D6
:102DEC008273A26802F404421343E26802F40062A4
:102DFC001343226902F002021343626902F00102DA
:102E0C001343A26902F400721343E26902F0380220
:102E1C001343226A02F080021343A26A02F40052A6
:102E2C00216813430B60638B226803F00403536027
:102E3C002268D36923F40063D36100206065012309
:102E4C0084F8513010BD84F850302046FDF78EFFC9
:102E5C00BCE7012070472DE9F04383B00446884657
:102E6C0091461F460A9DFEF731FB064694F85130F9
:102E7C00DBB26268012B0AD0B2F5827F40F005818B
:102E8C00A268002A40F00581042B40F00481B8F1BF
:102E9C00000F00F00281B9F1000F00F00081002F4B
:102EAC0000F0FF8094F85030012B00F0FC800123DF
:102EBC0084F8503094F85130DBB2042B02D0052347
:102ECC0084F8513000236365C4F83890E787A787EE
:102EDC00C4F83080E786A7862364636423681A6885
:102EEC0012F0400F03D11A6842F040021A60E368F6
:102EFC00B3F5006F11D063680BB1012F0BD1226BAE
:102F0C00236812781A73236B01332363E38E9BB20D
:102F1C00013B9BB2E386012771E063680BB1012F83
:102F2C000BD1226B23681288DA60236B0233236384
:102F3C00E38E9BB2013B9BB2E38601271BE0236827
:102F4C009A6812F0010F0ED0E28F92B25AB1DA6881
:102F5C00A36B1A80A36B0233A363E38F9BB2013B79
:102F6C009BB2E3870127FEF7B1FA801BA84202D37C
:102F7C00B5F1FF3F1ED1E38E9BB21BB9E38F9BB221
:102F8C00002B62D023689A6812F0020FD7D0E28E21
:102F9C0092B2002AD3D0002FD1D0226B1288DA60E3
:102FAC00236B02332363E38E9BB2013B9BB2E3861C
:102FBC000027C4E7012384F85130002384F85030F3
:102FCC00032063E023689A6812F0010F0ED0E28FA1
:102FDC0092B25AB1DA68A36B1A70A36B0133A36374
:102FEC00E38F9BB2013B9BB2E3870127FEF76EFA9E
:102FFC00831BAB4202D3B5F1FF3F1ED1EDB1E38E83
:10300C009BB213B9E38F9BB2FBB123689A6812F0A1
:10301C00020FD7D0E28E92B2002AD3D0002FD1D09B
:10302C00226B12781A73236B01332363E38E9BB2EA
:10303C00013B9BB2E3860027C4E7012384F851309F
:10304C00002384F85030032020E0324629462046E5
:10305C00FFF784FE90B9A36833B901932368DA684B
:10306C0001929B680193019B012384F8513000234A
:10307C0084F85030636D4BB1012007E02023636569
:10308C00002384F85030012000E0022003B0BDE89A
:10309C00F0830220FAE70220F8E70120F6E701208E
:1030AC00F4E70120F2E70220F0E7704730B585B075
:1030BC000446026851689368C3F3801013F0400F04
:1030CC0005D113F0010F02D011F0400F5AD113F0BB
:1030DC00020F02D011F0800F58D1C3F3401513F03A
:1030EC00200F01D1002854D011F0200F51D078B10D
:1030FC0094F85130DBB2032B4DD0636D43F00403D5
:10310C00636500230193D368019393680193019B3A
:10311C0065B1636D43F0010363650023039393680A
:10312C000393136823F040031360039B636D002B20
:10313C002FD02268536823F0E0035360012384F8F6
:10314C00513011F0030F2ED02268536823F0030383
:10315C005360E36C4BB1164A5A63E06CFEF75AFDB0
:10316C0018B1636D43F040036365A36C8BB1104AD7
:10317C005A63A06CFEF74EFD58B1636D43F04003EB
:10318C00636506E0236C2046984702E0636C20469A
:10319C00984705B030BD00230293D368029393681F
:1031AC000293029BF5E72046FFF77FFFF1E700BF94
:1031BC00C131000808B5406A0023C387C386FFF7F6
:1031CC0074FF08BD30B4026A036A23F00103036282
:1031DC004568836923F073030C681C4322F00202D8
:1031EC008B6813430B4A904206D0456084614A6851
:1031FC004263036230BC704723F00803CA681A4369
:10320C0022F0040325F440754A692A438D6915435D
:10321C00EBE700BF002C014030B4036A026A22F4D1
:10322C00807202624468C26922F073020D68154311
:10323C0023F400738A6843EA02230D4A904206D0B5
:10324C004460C5614A68C263036230BC704723F4B2
:10325C000063CA6843EA022323F4806324F44054D5
:10326C004A6944EA02148A6944EA0214E8E700BF96
:10327C00002C014030B4036A026A22F480520262CC
:10328C004468C26922F4E6420D6842EA052223F43E
:10329C0000538D6843EA0533074DA84206D04460BD
:1032AC00C2614A680264036230BC704724F48044F3
:1032BC004D6944EA8514F2E7002C014030B4056AEC
:1032CC00046A24F010040462846924F4407C4CEAFF
:1032DC00022C2CF4704C1B039BB243EA0C0325F01C
:1032EC00A005090101F0A00129438361016230BCF2
:1032FC00704730B4056A046A24F480740462C469AB
:10330C0024F0030C4CEA020C2CF0F00C1B01DBB289
:10331C0043EA0C0325F40075090201F400712943FA
:10332C00C361016230BC704730B4056A046A24F48E
:10333C0080540462C46924F4407C4CEA022C2CF4C2
:10334C00704C1B039BB243EA0C0325F40055090394
:10335C0001F400512943C361016230BC7047000085
:10336C0090F83D30DBB2012B27D1022380F83D30A1
:10337C000268D36843F00103D3600368114A934297
:10338C0010D0B3F1804F0DD0A2F59432934209D0F6
:10339C0002F58062934205D01A6842F001021A606D
:1033AC00002070479A6802F00702062A07D01A68B4
:1033BC0042F001021A600020704701207047002083
:1033CC00704700BF002C0140704770477047704732
:1033DC0070B504460368DE681D6915F0020F10D045
:1033EC0016F0020F0DD06FF002021A610123037761
:1033FC0003689B6913F0030F5ED0FFF7E6FF002311
:10340C00237715F0040F12D016F0040F0FD0236899
:10341C006FF004021A610223237723689B6913F46B
:10342C00407F4FD02046FFF7D0FF0023237715F0C5
:10343C00080F12D016F0080F0FD023686FF0080297
:10344C001A61042323772368DB6913F0030F40D040
:10345C002046FFF7BAFF0023237715F0100F12D088
:10346C0016F0100F0FD023686FF010021A610823AA
:10347C0023772368DB6913F4407F31D02046FFF7B4
:10348C00A4FF0023237715F0010F02D016F0010FD3
:10349C002DD115F0800F02D016F0800F2FD115F022
:1034AC00400F02D016F0400F31D115F0200F02D092
:1034BC0016F0200F33D170BDFFF786FF2046FFF7C3
:1034CC0085FF9CE72046FFF77FFF2046FFF77EFF36
:1034DC00ABE72046FFF778FF2046FFF777FFBAE708
:1034EC002046FFF771FF2046FFF770FFC9E72368FE
:1034FC006FF001021A612046FDF726FAC9E723682E
:10350C006FF080021A61204600F0EBFAC7E72368DF
:10351C006FF040021A612046FFF759FFC5E7236898
:10352C006FF020021A61204600F0DAFAC3E70000BF
:10353C0003681F4A90420AD0B0F1804F07D0A2F521
:10354C009432904203D002F58062904203D123F072
:10355C0070034A681343164A90420AD0B0F1804F68
:10356C0007D0A2F59432904203D002F580629042CB
:10357C0003D123F44073CA68134323F080034A69D0
:10358C00134303608B68C3620B688362084B9842D9
:10359C000AD001234361036913F0010F03D00369BF
:1035AC0023F00103036170470B690363F1E700BF6C
:1035BC00002C014040B310B5044690F83D30F3B1F7
:1035CC00022384F83D30214651F8040BFFF7B0FF7D
:1035DC00012384F8463084F83E3084F83F3084F878
:1035EC00403084F8413084F8423084F8433084F819
:1035FC00443084F8453084F83D30002010BD80F80C
:10360C003C30FDF7B9FDDBE70120704740B310B546
:10361C00044690F83D30F3B1022384F83D30214646
:10362C0051F8040BFFF784FF012384F8463084F82B
:10363C003E3084F83F3084F8403084F8413084F8D0
:10364C00423084F8433084F8443084F8453084F8B0
:10365C003D30002010BD80F83C30FDF7ADFDDBE7C0
:10366C0001207047002856D070B50D46044690F8DE
:10367C003D30002B4AD0022384F83D3022689368F9
:10368C0023F4804323F007039360214651F8040B85
:10369C00FFF74EFF21688B688A690E6A2868184309
:1036AC0022F4407222F00302AB68D5F818C043EA4A
:1036BC000C23134323F47C4323F0FC03EA68D5F872
:1036CC001CC042EA0C221A432B6A1B03D5F810C00B
:1036DC0043EA0C13134326F022066A686D6942EA2A
:1036EC0005123243886021688B6123681A620123BA
:1036FC0084F8463084F83E3084F83F3084F8423009
:10370C0084F8433084F83D30002070BD80F83C30A4
:10371C00FDF7C4FCAFE701207047000030B4036A2A
:10372C00026A22F0100202624468826922F4E642C4
:10373C000D6842EA052223F020038D6843EA051345
:10374C000C4DA84206D0446082614A6882630362D1
:10375C0030BC704723F08003CD6843EA051323F097
:10376C00400324F440644D6944EA85048D6944EABD
:10377C008504E8E7002C014038B590F83C30012B6B
:10378C0066D004460D46012380F83C300C2A5AD8EA
:10379C00DFE802F0075959591B59595930595959F1
:1037AC0044000068FFF70EFD2268936943F008039C
:1037BC0093612268936923F00403936122689369EF
:1037CC0029690B43936100203EE00068FFF7A6FFD8
:1037DC002268936943F4006393612268936923F42C
:1037EC008063936122689369296943EA0123936199
:1037FC00002029E00068FFF70FFD2268D36943F031
:10380C000803D3612268D36923F00403D3612268CF
:10381C00D36929690B43D361002015E00068FFF7D9
:10382C0029FD2268D36943F40063D3612268D3690C
:10383C0023F48063D3612268D369296943EA0123A5
:10384C00D361002000E00120002384F83C3038BD17
:10385C000220FCE770B4056A046A24F001040462D7
:10386C008469114EB0420DD0B0F1804F0AD0A6F54C
:10387C009436B04206D006F58066B04202D044F0D1
:10388C00010202E024F00304224322F0F0021B01A7
:10389C00DBB2134325F00A0201F00A0111438361E4
:1038AC00016270BC704700BF002C014038B590F825
:1038BC003C30012B5ED004460D46012380F83C3091
:1038CC000C2A52D8DFE802F00751515119515151CD
:1038DC002C5151513E00CB684A6809680068FFF7CB
:1038EC00B9FF2268936923F00C03936122689369F2
:1038FC00A9680B439361002038E0CB684A680968DB
:10390C000068FFF7DBFC2268936923F44063936142
:10391C0022689369A96843EA01239361002025E09A
:10392C00CB684A6809680068FFF7E3FC2268D36932
:10393C0023F00C03D3612268D369A9680B43D361CC
:10394C00002013E0CB684A6809680068FFF7ECFCBC
:10395C002268D36923F44063D3612268D369A968D0
:10396C0043EA0123D361002000E00120002384F806
:10397C003C3038BD0220FCE701F01F014FF0010C78
:10398C000CFA01FC036A23EA0C030362036A8A4003
:10399C00134303627047000010B50446084651BB40
:1039AC0094F83E30DBB2013B18BF0123002B5BD1F6
:1039BC00002839D1022384F83E30012201462068C8
:1039CC00FFF7DAFF23682A4A93423DD02368284A3E
:1039DC0093423ED0B3F1804F3BD0A2F59432934248
:1039EC0037D002F58062934233D01A6842F001025C
:1039FC001A60002039E0042908D008290DD094F869
:103A0C004130DBB2013B18BF0123CFE794F83F30C4
:103A1C00DBB2013B18BF0123C8E794F84030DBB29E
:103A2C00013B18BF0123C1E7042805D0082807D0A3
:103A3C00022384F84130C0E7022384F83F30BCE70E
:103A4C00022384F84030B8E75A6C42F400425A64BE
:103A5C00BCE79A6802F00702062A07D01A6842F0FF
:103A6C0001021A60002000E0012010BD0020FCE7DC
:103A7C00002C014090F83C20012A2CD010B40346B5
:103A8C00012280F83C20022280F83D200268506818
:103A9C00946820F0700C086840EA0C0050601A68BA
:103AAC000E4882420AD0B2F1804F07D0A0F5943074
:103ABC00824203D000F58060824204D124F080045D
:103ACC00496821439160012283F83D20002083F84E
:103ADC003C0010BC70470220704700BF002C014016
:103AEC0070477047026802F10C0353E8003F23F45F
:103AFC0090730C3242E800310029F3D1026802F1D4
:103B0C00140353E8003F23F00103143242E8003160
:103B1C000029F3D1036B012B05D0202380F8423010
:103B2C00002303637047026802F10C0353E8003F63
:103B3C0023F010030C3242E800310029F3D1ECE7FA
:103B4C0090F84130DBB2212B01D002207047836802
:103B5C00B3F5805F17D0036A5A1C02621A780368A7
:103B6C005A60C38C9BB2013B9BB2C3844BB90268B5
:103B7C00D36823F08003D3600268D36843F040031A
:103B8C00D360002070470369002BE4D1036A1B88C3
:103B9C000268C3F308035360036A02330362E0E76D
:103BAC0010B504460268136923F44053C1680B43F3
:103BBC00136183680269134342691A430168CB6835
:103BCC0023F4B05323F00C031343CB600268536906
:103BDC0023F4407381690B4353610268134B9A427F
:103BEC0020D0FEF733FD024602EB820202EB82028A
:103BFC0063689B00B2FBF3F20D48A0FB023149094C
:103C0C00642303FB11231B013233A0FB03035B0969
:103C1C0003F0F00202EB011203F00F0321681344CE
:103C2C008B6010BDFEF722FD0246DDE70038014037
:103C3C001F85EB5160B310B5044690F8413013B3B7
:103C4C00242384F841302268D36823F40053D360D2
:103C5C002046FFF7A5FF2268136923F490431361F4
:103C6C002268536923F02A0353612268D36843F412
:103C7C000053D36000206064202384F8413084F822
:103C8C004230606310BD80F84030FDF759FBD7E738
:103C9C0001207047704708B50168CA6822F04002DD
:103CAC00CA60202280F84120FFF7F4FF002008BDF5
:103CBC007047704708B5406A0023C385C384FFF77B
:103CCC00F8FF08BD704790F84230DBB2222B69D167
:103CDC008368B3F5805F4FD0826AB3F5805F04D000
:103CEC00002B56D10369002B53D103685B6813700A
:103CFC00836A01338362C38D9BB2013B9BB2C38544
:103D0C00002B51D100B583B00268D36823F0200397
:103D1C00D3600268D36823F48073D360026853695C
:103D2C0023F001035361202380F8423000234363C6
:103D3C00036B012B33D100230363026802F10C03E4
:103D4C0053E8003F23F010030C3242E80031002905
:103D5C00F3D103681A6812F0100F06D000220192FA
:103D6C001A6801925B680193019B818DFFF7AAFF92
:103D7C00002003B05DF804FB0269002AACD1826A12
:103D8C0003685B68C3F308031380836A023383629E
:103D9C00B1E703685B6803F07F031370A8E7FFF7D4
:103DAC0087FFE5E7022070470020704710B582B00E
:103DBC00044602681368D068516913F00F0F09D1DB
:103DCC0013F0200F0CD010F0200F09D02046FFF775
:103DDC007AFF16E011F0010115D110F4907F12D189
:103DEC00216B012979D013F0800F03D010F0800FD4
:103DFC0040F0138113F0400F03D010F0400F40F04F
:103E0C00108102B010BD13F0010F06D010F4807FAA
:103E1C0003D0626C42F00102626413F0040F04D010
:103E2C0019B1626C42F00202626413F0020F04D00A
:103E3C0019B1626C42F00402626413F0080F07D0EF
:103E4C0010F0200F00D119B1626C42F008026264CC
:103E5C00626C002AD5D013F0200F02D010F0200F86
:103E6C0029D123685B6903F04003626C12F0080FE0
:103E7C0000D163B32046FFF735FE23685B6913F06E
:103E8C00400F20D0226802F1140353E8003F23F0C6
:103E9C004003143242E800310029F3D1E36B73B1D3
:103EAC00624A5A63E06BFDF7B5FE0028A9D0E06BBF
:103EBC00436B9847A5E72046FFF705FFD1E720465F
:103ECC00FFF7F7FE9DE72046FFF7F3FE99E7204644
:103EDC00FFF7EFFE0023636493E713F0100F82D01B
:103EEC0010F0100F3FF47FAF002301931368019380
:103EFC0053680193019B536913F0400F51D0E26B4F
:103F0C0013685B689BB2002B3FF47BAFA18D994289
:103F1C007FF677AFE3859369202B37D0226802F1C7
:103F2C000C0353E8003F23F480730C3242E8003159
:103F3C000029F3D1226802F1140353E8003F23F067
:103F4C000103143242E800310029F3D1226802F156
:103F5C00140353E8003F23F04003143242E80031CD
:103F6C000029F3D1202384F84230002323632268F4
:103F7C0002F10C0353E8003F23F010030C3242E82B
:103F8C0000310029F3D1E06BFDF721FE02236363BE
:103F9C00A18DE38D9BB2C91A89B22046FFF792FE20
:103FAC002FE7A18DE38D9BB2C91A89B2E38D9BB229
:103FBC00002B3FF426AF00293FF423AF226802F117
:103FCC000C0353E8003F23F490730C3242E80030AA
:103FDC000028F3D1226802F1140353E8003F23F0C8
:103FEC000103143242E800300028F3D1202384F876
:103FFC00423000232363226802F10C0353E8003F94
:10400C0023F010030C3242E800300028F3D10223D5
:10401C0063632046FFF756FEF3E62046FFF790FD5C
:10402C00EFE62046FFF737FEEBE600BFC13C000889
:10403C00FCF78CFF0B480C490C4A002302E0D458C7
:10404C00C4500433C4188C42F9D3094A094C0023D8
:10405C0001E013600432A242FBD300F017F8FCF726
:10406C0049FD704700000020A800002040410008D6
:10407C00A80000203C040020FEE7034602449342C3
:10408C0000D1704703F8011BF9E7000070B500265A
:10409C000C4D0D4C641BA410A64209D100F01AF86B
:1040AC0000260A4D0A4C641BA410A64205D170BD13
:1040BC0055F8043B98470136EEE755F8043B984712
:1040CC000136F2E738410008384100083841000851
:1040DC003C410008F8B500BFF8BC08BC9E467047D0
:0C40EC00F8B500BFF8BC08BC9E46704749
:1040F80000000000010203040000000000000000AE
:10410800010203040607080901020000020304056E
:10411800060708090A0B0C0D0E0F1010010200000B
:1041280002030405060708090A0B0C0D0E0F1010F0
:04413800B5040008C2
:04413C0091040008E2
:10414000F0010020000C0140010000000000000010
:10415000000000000000000000000000000000005F
:1041600000000000F00100200010014020000000CD
:10417000000000000000000000000000000000003F
:104180000000000000000000F001002000100140CD
:10419000100000000000000000000000000000000F
:1041A000000000000000000000000000F0010020FE
:1041B00000080140100000000000000000000000A6
:1041C00000000000000000000000000000000000EF
:1041D0003E3F8C3A3E3F8C3AC907C90700127A002D
:0841E0000100000010000000C6
:040000050800403D72
:00000001FF
