:020000040800F2
:10000000005000207D4700085D1800085F180008B8
:100010006118000863180008651800080000000057
:100020000000000000000000000000006718000849
:1000300069180008000000006B1800086D1800081F
:10004000C5470008C5470008C5470008C547000860
:10005000C5470008C5470008C5470008C547000850
:10006000C5470008C5470008C547000875180008BF
:100070008518000895180008A5180008B51800088C
:10008000C5470008C5470008C5470008C547000820
:10009000C5470008C5470008C5470008C547000810
:1000A000C5470008C5470008C5470008C547000800
:1000B000C5470008C5180008C5470008C54700081F
:1000C000C5470008C5470008C5470008D5180008FF
:1000D000C5470008E5180008C5470008C5470008DF
:1000E000C5470008C5470008C547000800000000D4
:1000F0000000000000000000000000000000000000
:0C01000000000000000000005FF808F1A3
:10010C0080F0004002E000BF81F0004142001FBFC0
:10011C005FEA410392EA030F7FEA226C7FEA236CC9
:10012C006AD04FEA1262D2EB1363C1BFD2184140BE
:10013C0048404140B8BF5B42192B88BF704710F054
:10014C00004F40F4000020F07F4018BF404211F0F7
:10015C00004F41F4000121F07F4118BF494292EA5F
:10016C00030F3FD0A2F1010241FA03FC10EB0C008B
:10017C00C3F1200301FA03F100F0004302D5494218
:10018C0060EB4000B0F5000F13D3B0F1807F06D3C5
:10019C0040084FEA310102F10102FE2A51D2B1F1BD
:1001AC00004F40EBC25008BF20F0010040EA0300B2
:1001BC007047490040EB0000013A28BFB0F5000F32
:1001CC00EDD2B0FA80FCACF1080CB2EB0C0200FAE8
:1001DC000CF0AABF00EBC25052421843BCBFD04037
:1001EC001843704792F0000F81F4000106BF80F4B1
:1001FC0000000132013BB5E74FEA41037FEA226C74
:10020C0018BF7FEA236C21D092EA030F04D092F03E
:10021C00000F08BF0846704790EA010F1CBF002072
:10022C00704712F07F4F04D1400028BF40F00040CF
:10023C00704712F100723CBF00F50000704700F0EF
:10024C00004343F0FE4040F4000070477FEA226216
:10025C0016BF08467FEA23630146420206BF5FEAE7
:10026C00412390EA010F40F4800070474FF00003E7
:10027C0004E000BF10F0004348BF40425FEA000CAE
:10028C0008BF704743F0964301464FF000001CE056
:10029C0050EA010208BF70474FF000030AE000BFAC
:1002AC0050EA010208BF704711F0004302D54042EA
:1002BC0061EB41015FEA010C02BF8446014600205C
:1002CC0043F0B64308BFA3F18053A3F50003BCFA77
:1002DC008CF2083AA3EBC25310DB01FA02FC634424
:1002EC0000FA02FCC2F12002BCF1004F20FA02F22B
:1002FC0043EB020008BF20F00100704702F120021E
:10030C0001FA02FCC2F1200250EA4C0021FA02F27E
:10031C0043EB020008BF20EADC7070474FF0FF0C83
:10032C001CEAD0521EBF1CEAD15392EA0C0F93EA7E
:10033C000C0F6FD01A4480EA010C400218BF5FEA20
:10034C0041211ED04FF0006343EA501043EA511193
:10035C00A0FB01310CF00040B1F5000F3EBF49008D
:10036C0041EAD3715B0040EA010062F17F02FD2A91
:10037C001DD8B3F1004F40EBC25008BF20F0010074
:10038C00704790F0000F0CF0004C08BF49024CEA8B
:10039C00502040EA51207F3AC2BFD2F1FF0340EA1D
:1003AC00C250704740F400004FF00003013A5DDC8E
:1003BC0012F1190FDCBF00F000407047C2F10002CF
:1003CC00410021FA02F1C2F1200200FA02FC5FEABC
:1003DC00310040F1000053EA4C0308BF20EADC7006
:1003EC00704792F0000F00F0004C02BF400010F478
:1003FC00000F013AF9D040EA0C0093F0000F01F025
:10040C00004C02BF490011F4000F013BF9D041EA46
:10041C000C018FE70CEAD15392EA0C0F18BF93EA48
:10042C000C0F0AD030F0004C18BF31F0004CD8D172
:10043C0080EA010000F00040704790F0000F17BFF9
:10044C0090F0004F084691F0000F91F0004F14D03F
:10045C0092EA0C0F01D142020FD193EA0C0F03D197
:10046C004B0218BF084608D180EA010000F000409A
:10047C0040F0FE4040F40000704740F0FE4040F475
:10048C00400070474FF0FF0C1CEAD0521EBF1CEA14
:10049C00D15392EA0C0F93EA0C0F69D0A2EB030232
:1004AC0080EA010C49024FEA402037D04FF08053CC
:1004BC0043EA111143EA10130CF000408B4238BF91
:1004CC005B0042F17D024FF4000C8B4224BF5B1A9F
:1004DC0040EA0C00B3EB510F24BFA3EB510340EAED
:1004EC005C00B3EB910F24BFA3EB910340EA9C009B
:1004FC00B3EBD10F24BFA3EBD10340EADC001B010B
:10050C0018BF5FEA1C1CE0D1FD2A3FF650AF8B42AE
:10051C0040EBC25008BF20F0010070470CF0004CBB
:10052C004CEA50207F32C2BFD2F1FF0340EAC250E6
:10053C00704740F400004FF00003013A37E792F0A7
:10054C00000F00F0004C02BF400010F4000F013A05
:10055C00F9D040EA0C0093F0000F01F0004C02BF00
:10056C00490011F4000F013BF9D041EA0C0195E769
:10057C000CEAD15392EA0C0F08D142027FF47DAF02
:10058C0093EA0C0F7FF470AF084676E793EA0C0FF2
:10059C0004D14B023FF44CAF08466EE730F0004CF0
:1005AC0018BF31F0004CCAD130F000427FF45CAF80
:1005BC0031F000437FF43CAF5FE700BF4FEA4002ED
:1005CC00B2F1FE4F0FD34FF09E03B3EB12620DD975
:1005DC004FEA002343F0004310F0004F23FA02F0DF
:1005EC0018BF404270474FF00000704712F1610F86
:1005FC0001D1420205D110F0004008BF6FF000405D
:10060C0070474FF00000704710B5054C237833B994
:10061C00044B13B10448AFF300800123237010BDC9
:10062C00A800002000000000C048000808B5034BDB
:10063C001BB103490348AFF3008008BD0000000064
:10064C00AC000020C048000800B585B00023019321
:10065C00029303931748184A02604FF48072826029
:10066C00037303754FF40022C261436002230361DC
:10067C0001F000FEA8B90323019301230293072381
:10068C00039301A90B4801F04DFC68B902230193B7
:10069C00029301A9074801F045FC40B905B05DF88B
:1006AC0004FB00F0C7FBE6E700F0C4FBEEE700F04C
:1006BC00C1FBF3E7080100200024014010B586B00F
:1006CC000023029303930493059302681F4B9A42F1
:1006DC0001D006B010BD044603F56C439A6942F490
:1006EC0000729A619A6902F400720092009A9A69F7
:1006FC0042F004029A619B6903F004030193019B8D
:10070C000C2302930323039302A9114802F0C4F8AB
:10071C001048114B03600023436083608023C36047
:10072C004FF4807303614FF4806343612023836132
:10073C004FF48053C36101F02FFF18B9054B2362AE
:10074C005C62C6E700F076FBF8E700BF00240140CE
:10075C0000080140C400002008000240F8B50E4C0F
:10076C00022221460D4801F0C1FC0D4EB6F90020C5
:10077C000C4F920439460C4800F06FF90B4DB5F94B
:10078C000020920439460A4800F067F93388238028
:10079C002B886380F8BD00BF5001002008010020A9
:1007AC000A0000200AD7A33B4001002008000020CB
:1007BC0038010020F8B5184F39888904174800F023
:1007CC0059F90546164BB3F90040A4044FF091417A
:1007DC00144B1868FFF7A2FDFFF7F0FE0146281B2B
:1007EC0004F034F8104E3060798889040F4800F01A
:1007FC0041F905460E4BB3F90040A4044FF091416A
:10080C000C4B1868FFF78AFDFFF7D8FE0146281B32
:10081C0004F01CF87060F8BD50010020400100206D
:10082C000A000020040000204801002038010020AC
:10083C00080000200000002008B5FFF7BBFF08BD32
:10084C0000B583B01A4B5A6942F001025A615B69D8
:10085C0003F001030193019B002211460B2001F0D0
:10086C0053FE0B2001F060FE002211460C2001F01B
:10087C004BFE0C2001F058FE002211460D2001F019
:10088C0043FE0D2001F050FE002211460E2001F017
:10089C003BFE0E2001F048FE002211460F2001F015
:1008AC0033FE0F2001F040FE03B05DF804FB00BFE7
:1008BC000010024010B584B0044641F0400109021A
:1008CC00ADF80E1000220189406802F0FAF82246B9
:1008DC0052F80A0B4FF0FF33009301230DF10E0178
:1008EC0002F0F3FD01222189606802F0EAF804B0FD
:1008FC0010BD10B584B0044642EA0122ADF80E20BA
:10090C0000220189406802F0DCF8224652F80A0BFA
:10091C004FF0FF33009301230DF10E0102F0D5FDD2
:10092C0001222189606802F0CCF804B010BD10B52A
:10093C0004460021FFF7BEFFA37AA37301212046D2
:10094C00FFF7B8FFA37AE37302212046FFF7B2FF4B
:10095C00A37A237404212046FFF7ACFFA37AA37477
:10096C0005212046FFF7A6FFA37AE3740621204653
:10097C00FFF7A0FFA37A237507212046FFF79AFF04
:10098C00A37A637508212046FFF794FFA37AA37519
:10099C0009212046FFF78EFFA37AE3750A21204632
:1009AC00FFF788FFA37A23760B212046FFF782FFFF
:1009BC00A37A63760C212046FFF77CFFA37AA376FB
:1009CC000D212046FFF776FFA37AE37610BD10B514
:1009DC00044606220421FFF78CFF00220521204645
:1009EC00FFF787FFFF2206212046FFF782FFFF2239
:1009FC0007212046FFF77DFF202208212046FFF724
:100A0C0078FF202209212046FFF773FFDD220A21FF
:100A1C002046FFF76EFF00220B212046FFF769FFEF
:100A2C0014220C212046FFF764FF01220D212046E1
:100A3C00FFF75FFF10BD08B580220421FFF759FFB7
:100A4C0008BD08B580220D21FFF753FF08BD08B57E
:100A5C0001220421FFF74DFF08BD38B504460846B6
:100A6C0015464FF09141FFF759FCFFF7A7FD2060A9
:100A7C00656038BD38B50546006803F0E7FE0446EE
:100A8C0028686968C0F5802003F0E0FE20446860A7
:100A9C0038BD000038B5044603681B68586A00B2BC
:100AAC002085638D90FBF3F0216A800403F086FEB1
:100ABC00636903446361B4F92830628D93FBF2F1EE
:100ACC0002FB11332385226812689BB2536265695D
:100ADC00B4F92800618D8904800403F06FFE216A4B
:100AEC0003F06CFE28440549400003F0AFFE94F976
:100AFC002C3003FB00F0E06038BD00BFFD900C0013
:100B0C0010B50446C068636AE169C01A03F056FE6A
:100B1C000146201DFFF7AEFF2061E368636210BD44
:100B2C0003681A680023536203614362C360436124
:100B3C000385836070470069704700002DE9F0471A
:100B4C0088B0002404940594069407944C4B9A693D
:100B5C0042F020029A619A6902F020020092009AF7
:100B6C009A6942F010029A619A6902F0100201929D
:100B7C00019A9A6942F004029A619A6902F004029D
:100B8C000292029A9A6942F008029A619B6903F0F8
:100B9C0008030393039BDFF8EC9022463C21484664
:100BAC0001F08FFF384E22461221304601F089FFAA
:100BBC00364F224643F61701384601F082FF40F2C9
:100BCC00033304930594069404A9484601F064FE8B
:100BDC000C2304930125059506944FF00208CDF8DB
:100BEC001C8004A9484601F057FECDF810800595ED
:100BFC000694CDF81C8004A9304601F04DFE10235C
:100C0C000493059506944FF0030ACDF81CA00DEB48
:100C1C000301304601F040FE302304930595069401
:100C2C00CDF81CA004A9484601F036FE04950595A4
:100C3C000694CDF81CA004A9384601F02DFE43F60D
:100C4C001603049305950694CDF81C8004A9384628
:100C5C0001F022FE4CF2200304930594069404A99F
:100C6C00384601F019FE4FF4806304930594069402
:100C7C0004A9304601F010FE08B0BDE8F08700BFB3
:100C8C00001002400010014000080140000C01401F
:100C9C0010B5574B1B78ABB9564A138801339BB22E
:100CAC001380242B18D0534B1B88482B40D0504B0F
:100CBC001B78002B00F087804F4B1B78002B40F0EB
:100CCC008D8010BD4D4C21684D4800F08BFC616847
:100CDC004C4800F087FCDFE7494C2046FFF7DAFE72
:100CEC002046FFF70DFF424B1B78EBB9464C4FF4F7
:100CFC000041204601F0DEFE444B18704FF4804159
:100D0C00204601F0D7FE424B187004F58064012197
:100D1C00204601F0CFFE3F4B18700221204601F017
:100D2C00C9FE3D4B1870BEE7204600F015FCDDE710
:100D3C00344C2046FFF7AEFE2046FFF7E1FE2C4B6D
:100D4C001B78A3B92B4B00221A80344B1B78012B38
:100D5C0011D0022B1AD0002B31D1314B5A639A632C
:100D6C00274800F09EFC274800F09BFC9FE720469C
:100D7C0000F0F2FBE6E72B4B1968214800F06EFC03
:100D8C00294B19681F4800F069FC90E74FF091411E
:100D9C00264B1868FFF7C2FAFFF710FC01461848FB
:100DAC0000F047FC4FF09141214B1868FFF7B6FA61
:100DBC00FFF704FC0146134800F03BFC77E70C4BB3
:100DCC0000221A7073E7164B00225A639A630C4880
:100DDC0000F067FC0B4800F064FC6DE70848FFF777
:100DEC009FFE0848FFF79CFE034B00221A7068E731
:100DFC00550100206E010020540100204801002004
:100E0C008802002070010020000C01406C010020C1
:100E1C006B0100206A01002069010020680100209C
:100E2C000004004064010020600100205C010020EF
:100E3C005801002072B6FEE700B595B028220021BB
:100E4C000DEB020003F00AFD0023059306930793B4
:100E5C0008930993019302930393049301220A923A
:100E6C004FF480330B930E920222119212934FF493
:100E7C00E01313930AA801F041FEC8B90F230593A0
:100E8C0002210691002307934FF480620892099384
:100E9C0005A802F065F868B9022301934FF40043EA
:100EAC00039301A802F038F930B915B05DF804FBD2
:100EBC00FFF7C0FFFFF7BEFFFFF7BCFF80B500F0E8
:100ECC00BBFFFFF7B9FFFFF739FEFFF7B9FCFFF7E0
:100EDC00BBFB00F0F5FB00F009FD00F03DFD00F060
:100EEC009DFE00F06BFD00F0E5FE012210213C4858
:100EFC0001F0E7FD3B4D01221021284601F0E1FDF8
:100F0C0001222021284601F0DCFD374C012211463C
:100F1C00204601F0D6FD012000F0B2FF0122042191
:100F2C00284601F0CEFD01224FF40051204601F07D
:100F3C00C8FD01220421204601F0C3FD01224FF41B
:100F4C000061204601F0BDFD012000F099FF274F04
:100F5C003846FFF73CFD264E3046FFF738FD254D51
:100F6C002846FFF734FD244C2046FFF730FD384669
:100F7C00FFF76DFD3046FFF76AFD2846FFF767FD6A
:100F8C002046FFF764FD3846FFF7D1FC3046FFF7EB
:100F9C00CEFC2846FFF7CBFC2046FFF7C8FC3846B2
:100FAC00FFF74FFD3046FFF74CFD2846FFF749FD94
:100FBC002046FFF746FD3846FFF73DFD3046FFF76C
:100FCC003AFD2846FFF737FD2046FFF734FD012098
:100FDC0000F056FF094B0A4A1A6000F013F8FEE7BE
:100FEC000008014000100140000C01407800002076
:100FFC0054000020300000200C000020A003002032
:10100C003433FFFF08B500F0CFF8074800F049FB78
:10101C00064800F046FB064B00221A7000F094F8CC
:10102C00FFF79CFB08BD00BF880200207001002068
:10103C005501002000238361C36103628363436312
:10104C00704738B50446891A016043695A42914287
:10105C0001DD994230DB6168206803F0F7FBA06189
:10106C00A168206803F0F2FB0546606B236B2169D5
:10107C00C01A03F0EBFB616A284403F0E7FBE36959
:10108C000344E3612068A36BE168C01A03F0DEFB44
:10109C00616A03F093FB2062A369E269134418446C
:1010AC002063A36A984203DCE36A8342B8BF034619
:1010BC0063632368A36338BD00230360FFF7BAFFA3
:1010CC00C9E7406B704710B5044651B900238360E3
:1010DC000375637D013B032B26D8DFE803F0212643
:1010EC002B300A4681EAE171A1EBE271438A994205
:1010FC0003DB038A8B42A8BF0B46A360002A07DDE3
:10110C000122A189606801F0DCFC01232375E0E772
:10111C000022A189606801F0D4FCFF232375D8E775
:10112C0023681B68A2685A6310BD23681B68A268F9
:10113C009A63F9E723681B68A268DA63F4E723680B
:10114C001B68A2681A64EFE710B500F0CFFB00F043
:10115C0003FC00F063FDFFF777FA0F4801F00EF97E
:10116C000E4803686FF001041C613C2102F0BCFFC7
:10117C000B4803681C613C2102F0B6FF094C0021AE
:10118C00204602F043FF0421204602F03FFF204698
:10119C0002F020FC10BD00BF080100205C050020FF
:1011AC0014050020CC0400202DE9F04F85B0434DF0
:1011BC004FF00008CDF80080414B424A02212846EE
:1011CC0000F0A2F801232C223F49284600F0CAF86F
:1011DC004FF47A730293CDF80480022700973B4BAF
:1011EC0001223B49284600F0D3F800240194394EE3
:1011FC000096234622463849284600F0FBF8DFF8D3
:10120C00DCB0CDF804B000962346354A3549284663
:10121C0000F01DF9DFF8D0A0CDF808A0DFF8CC90D5
:10122C00CDF804900094324B324A4FF07E51284650
:10123C0000F03DF93049284600F083F92F4DCDF8E8
:10124C0000801F4B1F4A3946284600F05DF80123E9
:10125C002C222B49284600F085F84FF47A73029320
:10126C00CDF804800097274B3A461949284600F0E0
:10127C008FF801940096234622461749284600F021
:10128C00B9F8CDF804B000962346154A15492846FE
:10129C0000F0DDF8CDF808A0CDF804900094144BC4
:1012AC00144A4FF07E51284600F001F912492846A5
:1012BC0000F047F905B0BDE8F08F00BF88020020B0
:1012CC006666AA41002085445C050020000C0140A4
:1012DC00CC0400206F12833B2FDD6440986E123FCC
:1012EC005C8F423E855F6A3D2B47A244BA03693846
:1012FC00125BE14439D6BF400AD7A33C70010020F1
:10130C0014050020000801402DE9F04104460D466B
:10131C0017461E469DF8188080F814114FF0914125
:10132C001846FEF7FBFFFFF749F92062B8F1000FF2
:10133C0014D0FF2384F8103131463846FFF7A2F859
:10134C004FF09141FEF7EAFFFFF738F9C4F80801B6
:10135C0015B14342E365A065BDE8F081012384F833
:10136C001031E9E738B504461D460160428500227C
:10137C0006490430FFF771FB1DB9012384F82C30AA
:10138C0038BDFF2384F82C30FAE700BFCDCCCC3E1F
:10139C00C0F8E41080F8F920C0F8E830009BC0F8E1
:1013AC00F030BDF80430A0F8F630BDF80830A0F8E5
:1013BC00F43090F81431012B09D0022B0FD0ABB9BB
:1013CC00A3F58023C3654FF4802383657047084BD6
:1013DC00C0F898304FF48023C0F894307047044B19
:1013EC00C0F8D4304FF48023C0F8D030704700BF21
:1013FC000000FCFF70B50446084616461D464FF02B
:10140C009141FEF78BFFFFF7D9F860634FF09141E4
:10141C003046FEF783FFFFF7D1F8A0634FF0914100
:10142C002846FEF77BFFFFF7C9F8E0634FF09141C8
:10143C000498FEF773FFFFF7C1F860654FF0914118
:10144C000598FEF76BFFFFF7B9F8206470BD70B517
:10145C000446084616461D464FF09141FEF75EFFC6
:10146C00FFF7ACF820674FF091413046FEF756FF7E
:10147C00FFF7A4F860674FF091412846FEF74EFF46
:10148C00FFF79CF8A0674FF091410498FEF746FFD8
:10149C00FFF794F80546C4F890004FF09141059879
:1014AC00FEF73CFFFFF78AF8E067E56170BD70B5A9
:1014BC0004460D461E464FF091411046FEF72EFF96
:1014CC00FFF77CF8C4F8AC004FF091413046FEF7C2
:1014DC0025FFFFF773F8C4F8B0004FF09141049862
:1014EC00FEF71CFFFFF76AF8C4F8B4004FF0914107
:1014FC000598FEF713FFFFF761F8C4F8CC004FF026
:10150C0091410698FEF70AFFFFF758F8C4F8B800A7
:10151C004FF091412846FEF701FF0646FFF74EF8C3
:10152C00C4F80C0194F81431022B00D070BD0546A0
:10153C0006F10040FFF742F8C4F89800C4F8945044
:10154C00F4E710B5044608464FF09141FEF7E6FE6D
:10155C00FFF734F8606410BD38B5044690F81531C7
:10156C00032B0ED194F81431012B15D0022B26D05D
:10157C0033B904F16C00FFF75DFD0023C4F80031B2
:10158C0038BDD0F80051FFF7D6FA0246294604F1CF
:10159C006C00FFF756FDE5E704F16C00FFF791FDD9
:1015AC00C217B4F8F430A0FB030103FB0211800C4A
:1015BC0040EA813104F1E400FFF785FDE0E794F89F
:1015CC001531032B06D004F16C00FFF77AFDC4F83B
:1015DC000401D5E704F16C00FFF72CFD0023C4F8DF
:1015EC000031CDE738B5044690F81431022B06D003
:1015FC00A830FFF71FFD0023C4F8043138BD00F1FB
:10160C00A8050A46D0F804112846FFF71AFD28460B
:10161C00FFF757FDC217B4F8F430A0FB030103FB2E
:10162C000211800C40EA813104F1E400FFF74BFD1C
:10163C00E4E790F8143183B1022380F8153190F966
:10164C00102101FB02F2D0F808319A4203DC5B4214
:10165C009342B8BF1346C0F80031704738B590F8C4
:10166C001431022B00D038BD04460D46032380F8FC
:10167C00153190F91001FEF7FDFD2946FEF74EFEDF
:10168C004FF09141FEF74AFEFEF798FFD4F80C316B
:10169C00984203DC5B428342B8BF0346C4F8043172
:1016AC00E1E710B50446A830FFF7C4FC04F16C0068
:1016BC00FFF7C0FC04F13000FFF7BCFC10BD0000CC
:1016CC0008B50F480F4B03604FF48273436000233F
:1016DC0083604FF40062C2600361012242614FF4E7
:1016EC00007282612822C2610362436283620A2310
:1016FC00C36201F08FFE00B908BDFFF79BFBFBE74F
:10170C002C0400200030014070B586B000230293F9
:10171C000393049305930268364B9A4201D006B0AA
:10172C0070BD044603F560439A6942F480529A6195
:10173C009A6902F480520092009A9A6942F004026B
:10174C009A619B6903F004030193019BA02302930C
:10175C000223039303230593274E02A9304601F07D
:10176C009BF84023029300250395049502A930466B
:10177C0001F092F82148224B03604560856080237C
:10178C00C3604FF4807303614FF4806343618561E0
:10179C004FF48053C36100F0FFFE20BB174BE36492
:1017AC005C621848184B036010234360002383606D
:1017BC008022C2604FF4807202614FF480624261F9
:1017CC0083614FF48053C36100F0E6FE70B90D4B9A
:1017DC00A3645C6200221146232000F095FE2320B6
:1017EC0000F0A2FE9BE7FFF725FBD7E7FFF722FBF4
:1017FC00EDE700BF0030014000080140E803002085
:10180C001C000240A40300203000024082B00E4BAA
:10181C009A6942F001029A619A6902F001020092FF
:10182C00009ADA6942F08052DA61DB6903F0805386
:10183C000193019B054A536823F0E06343F0007366
:10184C00536002B0704700BF00100240000001401E
:10185C00FEE7FEE7FEE7FEE7FEE7704770477047DE
:10186C0008B500F0FBFA08BD08B5024800F072FF9D
:10187C0008BD00BFC400002008B5024800F06AFF94
:10188C0008BD00BFE803002008B5024800F062FF65
:10189C0008BD00BFA403002008B5024800F05AFFA1
:1018AC0008BD00BFE805002008B5024800F052FF53
:1018BC0008BD00BFA405002008B5024802F0C2F81C
:1018CC0008BD00BFCC04002008B5024801F028FF79
:1018DC0008BD00BF2C04002008B5024802F006FE2B
:1018EC0008BD00BF2C0600207047000000B58DB06D
:1018FC002422002103A802F0B1FF002301930293DC
:10190C001348144A0260436083604FF6FF72C26052
:10191C0003614361836103230393012205920A232C
:10192C00079309920B9303A902F0D6F950B900233F
:10193C000193029301A9064802F03CFC28B90DB0B2
:10194C005DF804FBFFF776FAF1E7FFF773FAF6E7B9
:10195C005C050020002C014000B58DB02422002134
:10196C0003A802F07BFF00230193029312484FF06F
:10197C0080420260436083604FF6FF72C260036175
:10198C0083610323039301230593099303A902F0B5
:10199C00A3F950B900230193029301A9064802F060
:1019AC0009FC28B90DB05DF804FBFFF743FAF1E729
:1019BC00FFF740FAF6E700BF1405002000B587B02A
:1019CC0000230493059300930193029303931B4804
:1019DC001B4A0260436083604FF6FF72C260036172
:1019EC00836102F04DF9E0B900230493059304A937
:1019FC00124802F0DFFBB8B90023009301220192D8
:101A0C0002930393082269460C4802F089FA70B9D4
:101A1C000C226946094802F083FA58B907B05DF800
:101A2C0004FBFFF707FADFE7FFF704FAE4E7FFF739
:101A3C0001FAEDE7FFF7FEF9F0E700BF84040020A0
:101A4C000008004000B58BB0002306930793089361
:101A5C00099303682D4A934205D0B3F1804F1DD0F2
:101A6C000BB05DF804FB2A4B9A6942F400629A6150
:101A7C009A6902F400620192019A9A6942F0040296
:101A8C009A619B6903F004030293029B4FF4407329
:101A9C00069306A91F4800F0FFFEE1E703F50433A7
:101AAC00DA6942F00102DA61DA6902F001020392AA
:101ABC00039A9A6942F004029A619A6902F004024C
:101ACC000492049A9A6942F008029A619B6903F0A5
:101ADC0008030593059B4FF40043069306A90D4894
:101AEC0000F0DAFE0823069300230793089306A957
:101AFC00094800F0D1FE094A536823F4407343F0BF
:101B0C00E06343F480735360AAE700BF002C0140EC
:101B1C000010024000080140000C01400000014090
:101B2C0002680E4B9A4200D0704700B583B003F5A3
:101B3C000333DA6942F00202DA61DB6903F0020373
:101B4C000193019B002211461D2000F0DDFC1D209D
:101B5C0000F0EAFC03B05DF804FB00BF0004004099
:101B6C0000B587B000230293039304930593026896
:101B7C00104B9A4202D007B05DF804FB03F5023318
:101B8C00DA6942F00402DA61DA6902F004020092C6
:101B9C00009A9A6942F008029A619B6903F0080363
:101BAC000193019B4FF44073029302A9024800F089
:101BBC0073FEE0E700080040000C014000B587B060
:101BCC00002302930393049305930268104B9A42EB
:101BDC0002D007B05DF804FB03F503339A6942F0B9
:101BEC0010029A619B6903F010030193019BC023BF
:101BFC00029302230393059302A9064800F04CFEBE
:101C0C00054A536843F0E06343F440635360E0E7F4
:101C1C0000040040001001400000014000B58BB0F2
:101C2C000023089309930193029303930493059360
:101C3C00069307931D481E4A02600322426083608C
:101C4C0040F2E732C2600361836101F0EDFF00BB3B
:101C5C00202308930023099308A9144802F0AAFA38
:101C6C00D0B960230193002202920392059201A93C
:101C7C000E4802F0BBF890B904220DEB02010B48A0
:101C8C0002F0B4F870B90948FFF798FF0BB05DF893
:101C9C0004FBFFF7CFF8DBE7FFF7CCF8E1E7FFF742
:101CAC00C9F8E9E7FFF7C6F8EDE700BFCC04002060
:101CBC000004004008B50A480A4B03604FF4E133B6
:101CCC00436000238360C36003610C224261836123
:101CDC00C36102F04FFB00B908BDFFF7ABF8FBE79F
:101CEC002C06002000380140F0B587B00023029389
:101CFC000393049305930268354B9A4201D007B0C5
:101D0C00F0BD044603F558439A6942F480429A6147
:101D1C009A6902F480420092009A9A6942F0080291
:101D2C009A619B6903F008030193019B4023029382
:101D3C000223039303230593264F02A9384600F090
:101D4C00ABFD8026029600250395049502A9384622
:101D5C0000F0A2FD204A536843F0E06343F0040313
:101D6C0053601E481E4B0360102343608560C660A1
:101D7C000561456185614FF40053C36100F00CFCB3
:101D8C00F8B9164BA3635C621648174B036000232B
:101D9C00436083608022C2600361436183614FF4BE
:101DAC000053C36100F0F8FB70B90E4BE3635C6247
:101DBC0000221146252000F0A7FB252000F0B4FBE3
:101DCC009DE7FFF737F8DCE7FFF734F8EDE700BFE6
:101DDC0000380140000C014000000140E8050020E3
:101DEC0044000240A40500205800024010B50446EF
:101DFC000E4B1A784FF47A73B3FBF2F30C4A10685B
:101E0C00B0FBF3F000F09EFB68B90F2C01D9012058
:101E1C000AE0002221464FF0FF3000F075FB054B25
:101E2C001C60002000E0012010BD00BFA0000020BD
:101E3C009C000020A400002008B5074A136843F05A
:101E4C0010031360032000F04DFB0F20FFF7CEFFB3
:101E5C00FFF7DCFC002008BD00200240034A11689B
:101E6C00034B1B780B441360704700BF74060020B3
:101E7C00A0000020014B1868704700BF74060020BA
:101E8C0038B50446FFF7F6FF0546B4F1FF3F02D024
:101E9C00044B1B781C44FFF7EDFF401BA042FAD308
:101EAC0038BD00BFA000002008B5436A9A6A12F042
:101EBC00500F1ED19A6A42F400729A621A689268A4
:101ECC0002F46022B2F5602F03D01846FEF7B4FC82
:101EDC0008BD1A7B002AF8D19A6A22F480729A62A1
:101EEC009A6A12F4805FF0D19A6A42F001029A6207
:101EFC00EBE71B6A1B6B9847EAE7704708B5406A2B
:101F0C00FFF7FBFF08BD704708B5406A836A43F0D2
:101F1C0040038362C36A43F00403C362FFF7F3FF19
:101F2C0008BD000030B482B00022019290F8242049
:101F3C00012A00F08F800346012280F824204A6891
:101F4C00062A2DD80468606B02EB8202053A4FF02A
:101F5C001F0C0CFA02FC20EA0C000D6805FA02F2C8
:101F6C00024362630A68092A38D91C68E06802EBEC
:101F7C0042021E3A4FF0070C0CFA02FC20EA0C004D
:101F8C008D6805FA02F20243E2600A68103A012AEF
:101F9C0034D90020002283F8242002B030BC7047D2
:101FAC000C2A0DD80568286B02EB8202233A1F24F9
:101FBC00944020EA04000C68944020432863D1E745
:101FCC000568E86A02EB8202413A1F24944020EA39
:101FDC0004000C6894402043E862C3E71C68206945
:101FEC0002EB42024FF0070C0CFA02FC20EA0C0048
:101FFC008D6805FA02F202432261C6E71A68164898
:10200C00824205D09A6A42F020029A620120C1E70E
:10201C00906810F4000F1BD1906840F400009060A1
:10202C000A68102A01D00020B4E70C4A12680C4947
:10203C00A1FB0212920C02EB82025200019202E00E
:10204C00019A013A0192019A002AF9D10020A1E7E4
:10205C0000209FE70220A0E7002401409C00002004
:10206C0083DE1B4330B583B00023019303689A6869
:10207C0012F0010F33D104469A6842F001029A60C3
:10208C00184B1B68184AA2FB03239B0C019302E01C
:10209C00019B013B0193019B002BF9D1FFF7EAFE59
:1020AC00054623689B6813F0010F16D1FFF7E2FE7B
:1020BC00431B022BF5D923689B6813F0010FF0D159
:1020CC00A36A43F01003A362E36A43F00103E362E3
:1020DC00002384F82430012002E0002000E00020DE
:1020EC0003B030BD9C00002083DE1B43F8B50446D2
:1020FC000D46164601684448814259D0434B9942DB
:10210C0056D094F82430012B7CD0012384F8243051
:10211C002046FFF7A7FF074600286ED1A16A21F4DD
:10212C00706121F0010141F48071A1622268374B8A
:10213C009A4244D0A36A23F48013A362536813F425
:10214C00806F05D0A36A23F4405343F48053A362F9
:10215C00A36A13F4805F48D0E36A23F00603E362BA
:10216C00002384F82430236A294A9A62236A294A74
:10217C00DA62236A284A1A6323686FF002021A6033
:10218C002268936843F480739360216833462A462F
:10219C004C31206A00F034FA23689A6802F4602209
:1021AC00B2F5602F24D09A6842F480129A6027E02E
:1021BC00154B5B6813F4702FA3D0012720E0A3F517
:1021CC0080635B6813F4702FB4D0A36A43F480135C
:1021DC00A3620D4B5B6813F4806FB9D0A36A23F430
:1021EC00405343F48053A362B2E70023E362B7E7A2
:1021FC009A6842F4A0029A6002E0002384F824302A
:10220C003846F8BD0227FBE70024014000280140B6
:10221C00B51E0008091F0008151F000838B5036813
:10222C009A6812F0010F01D1002038BD04469A685B
:10223C0022F001029A60FFF71DFE054623689B6899
:10224C0013F0010F13D0FFF715FE431B022BF5D92A
:10225C0023689B6813F0010FF0D0A36A43F01003BE
:10226C00A362E36A43F00103E3620120DDE700208F
:10227C00DBE7000000287BD070B50446836A002B96
:10228C004DD02046FFF7CAFFA36A13F0100369D1A3
:10229C00002867D1A26A22F4885222F0020242F08E
:1022AC000202A2626268E1690A43217B42EA4102AE
:1022BC00A568B5F5807F02D0012D36D01D46267D50
:1022CC00012E35D02668716821F46941294371606B
:1022DC002568AE68274931401143A960A168B1F562
:1022EC00807F01D0012902D12369013B1B052568A0
:1022FC00E96A21F470010B43EB62236899681E4B69
:10230C000B409A4225D0A36A23F0120343F010032A
:10231C00A362E36A43F00103E362012027E0C36296
:10232C0080F82430FEF7CAF9ABE74FF48075C6E7A6
:10233C0031B9A169013945EA413141F40065C1E780
:10234C00A16A41F02001A162E16A41F00101E16260
:10235C00B8E70023E362A36A23F0030343F001030D
:10236C00A36204E0A36A43F01003A362012070BDD2
:10237C0001207047FDF7E1FFFE0E1FFF70B582B024
:10238C000023019390F82430012B72D004460123D2
:10239C0080F82430FFF742FF2046FFF763FE054626
:1023AC0028B1002384F82430284602B070BDA36AFB
:1023BC0023F4885323F0020343F00203A3622E4B51
:1023CC001E68022000F034FFB6FBF0F67600019692
:1023DC0002E0019B013B0193019B002BF9D1226888
:1023EC00936843F008039360FFF744FD06462368A7
:1023FC009A6812F0080F14D0FFF73CFD801B0A28D6
:10240C00F5D923689B6813F0080FF0D0A36A23F06A
:10241C00120343F01003A362002384F82430012537
:10242C00C2E79A6842F004029A60FFF723FD064661
:10243C0023689B6813F0040F14D0FFF71BFD801B5F
:10244C000A28F5D923689B6813F0040FF0D0A36A0F
:10245C0023F0120343F01003A362002384F824300A
:10246C000125A1E7A36A23F0030343F00103A36250
:10247C0097E7022598E700BF9C000020002808DBA6
:10248C000901C9B200F1604000F5614080F8001309
:10249C00704700F00F000901C9B2014B1954704785
:1024AC0014ED00E000B500F00700C0F1070CBCF122
:1024BC00040F28BF4FF0040C031D062B0FD9C31EAD
:1024CC004FF0FF3E0EFA0CF021EA000199400EFA93
:1024DC0003FE22EA0E0241EA02005DF804FB00232F
:1024EC00EEE70000074AD36823F4E0631B041B0CDF
:1024FC00000200F4E060034343F0BF6343F4003395
:10250C00D360704700ED00E010B50446054BD86869
:10251C00C0F30220FFF7C6FF01462046FFF7AEFFCF
:10252C0010BD00BF00ED00E0002807DB00F01F022B
:10253C00400901239340024A42F82030704700BF03
:10254C0000E100E00138B0F1807F0BD24FF0E023C6
:10255C005861054AF02182F8231000209861072267
:10256C001A6170470120704700ED00E030B401247F
:10257C00056CAC40C56B6C60046863604368102BE1
:10258C0005D0036899600368DA6030BC7047036853
:10259C009A600368D960F8E750B310B4024601683A
:1025AC00144B0B441448A0FB03031B099B0013643E
:1025BC00124BD363022382F8213008686FF30D109D
:1025CC00536894682343D4682343146923435469A0
:1025DC00234394692343D469234303430B600020B2
:1025EC009063012382F8213082F8200010BC7047E0
:1025FC0001207047F8FFFDBFCDCCCCCC00000240D1
:10260C0038B5044690F82000012832D0012084F817
:10261C00200094F82100C0B2012804D0002384F8D3
:10262C002030022038BD022084F821000020A06355
:10263C002568286820F0010028602046FFF796FFE7
:10264C00E36A5BB12268136843F00E0313602268DF
:10265C00136843F0010313600020E3E7226813685A
:10266C0023F0040313602268136843F00A03136019
:10267C00EDE70220D6E7034690F82120D2B2022AD9
:10268C0006D004228263002280F8202001207047AB
:10269C0001680A6822F00E020A6001680A6822F0DA
:1026AC0001020A60026CC06B012101FA02F2426065
:1026BC0083F82110002083F82000704708B590F8AB
:1026CC002130DBB2022B03D004238363012008BD2D
:1026DC000268136823F00E0313600268136823F07A
:1026EC00010313600368194A934214D014329342C5
:1026FC001FD0143293421ED0143293421ED0143287
:10270C0093421ED01432934202D04FF0807203E0F9
:10271C004FF4801200E001220D4B5A60012380F827
:10272C002130002380F82030436B6BB19847002098
:10273C00CDE71022F0E74FF48072EDE74FF48052B2
:10274C00EAE74FF48032E7E70020C0E708000240D8
:10275C000000024038B5C36B1A6804682568016C28
:10276C0004238B40134235D015F0040F32D023686C
:10277C0013F0200F03D1236823F0040323600368B4
:10278C00434A934214D01432934218D014329342D9
:10279C0017D01432934217D01432934217D01432FC
:1027AC00934202D04FF0806203E04FF4800200E0CD
:1027BC000422384B5A60C36A03B1984738BD402293
:1027CC00F7E74FF48062F4E74FF48042F1E74FF4FF
:1027DC008022EEE702238B4013423CD015F0020F0F
:1027EC0039D0236813F0200F06D1236823F00A0395
:1027FC002360012380F821300368254A934214D0CA
:10280C00143293421CD0143293421BD01432934294
:10281C001BD0143293421BD01432934202D04FF08F
:10282C00007203E04FF4001200E00222194B5A60D0
:10283C00002380F82030836A002BBFD09847BDE777
:10284C002022F3E74FF40072F0E74FF40052EDE76B
:10285C004FF40032EAE708238B401342AED015F058
:10286C00080FABD0236823F00E032360026CC16BFE
:10287C00012303FA02F24A60836380F821300023BB
:10288C0080F82030036B002B98D0984796E700BF58
:10289C00080002400000024070B582B00024A4463B
:1028AC00A1E07E4DAB4214D00CD8A5F58015AB42FF
:1028BC000FD005F57025AB420BD0A5F58015AB42BA
:1028CC0010D106E0764DAB4203D005F58035AB4216
:1028DC0008D18B68002B50D0012B49D042610824C1
:1028EC0000E0CC68BEF1FF0F49D806464FEA8C02D7
:1028FC0033680F25954023EA050304FA02F21343CB
:10290C0033604B6813F0805F6BD0664B9A6942F072
:10291C0001029A619B6903F001030193019B4FEA49
:10292C009C02951C604B53F825600CF00305AD0020
:10293C000F23AB4026EA03065C4B984226D003F5E6
:10294C008063984200F08C8003F58063984200F01D
:10295C00898003F58063984216D0042317E0CC6875
:10296C000434BFE7CC680834BCE7CC680C34B9E756
:10297C0002610824B6E70024B4E70424B2E7061D7C
:10298C00ACF108029200B3E7032300E00023AB4054
:10299C0033430232444D45F822304B6813F4801F08
:1029AC0062D0434A936843EA0E0393604B6813F476
:1029BC00001F5FD03E4AD36843EA0E03D3604B68D6
:1029CC0013F4003F5CD03A4A536843EA0E03536059
:1029DC004B6813F4803F59D0354A136843EA0E0311
:1029EC0013600CF1010C0B6833FA0CF254D0012279
:1029FC0002FA0CF203EA020E32EA0303F1D14B683D
:102A0C00122B3FF64EAF122B3FF66CAF01A555F8CB
:102A1C0023F000BFDF280008EF2800087129000808
:102A2C0083290008F1280008F1280008F128000883
:102A3C00F1280008F1280008F1280008F128000806
:102A4C00F1280008F1280008F1280008F1280008F6
:102A5C00F1280008F12800086B29000877290008E4
:102A6C00012394E7022392E7114A936823EA0E03A9
:102A7C0093609BE70E4AD36823EA0E03D3609EE76C
:102A8C000B4A536823EA0E035360A1E7084A136804
:102A9C0023EA0E031360A4E702B070BD00002210FD
:102AAC0000003110001002400000014000080140FD
:102ABC00000401408368194201D0012070470020B6
:102ACC0070470AB101617047090401617047000049
:102ADC0082B0084B1B68084AA2FB03235B0A00FB6D
:102AEC0003F3019300BF019B5A1E0192002BF9D1F5
:102AFC0002B070479C000020D34D6210002800F0FB
:102B0C00F18170B582B00446036813F0010F2CD02C
:102B1C00994B5B6803F00C03042B1DD0964B5B6840
:102B2C0003F00C03082B12D06368B3F5803F41D03F
:102B3C00002B55D103F1804303F504331A6822F4BA
:102B4C0080321A601A6822F480221A6037E08A4BAD
:102B5C005B6813F4803FE7D0874B1B6813F4003F8E
:102B6C0003D06368002B00F0BF81236813F0020FC1
:102B7C0075D0814B5B6813F00C0F5FD07E4B5B689C
:102B8C0003F00C03082B54D02369002B00F08A802F
:102B9C007A4B01221A60FFF76DF90546764B1B68DC
:102BAC0013F0020F75D1FFF765F9401B0228F5D918
:102BBC0003209EE1704A136843F48033136063680A
:102BCC0043B3FFF757F905466B4B1B6813F4003FF3
:102BDC00CBD1FFF74FF9401B6428F5D9032088E1CE
:102BEC00B3F5A02F09D0644B1A6822F480321A6016
:102BFC001A6822F480221A60E1E703F18043A3F5FE
:102C0C003C331A6842F480221A601A6842F480320B
:102C1C001A60D4E7FFF72EF90546574B1B6813F4DF
:102C2C00003FA2D0FFF726F9401B6428F5D90320FA
:102C3C005FE1514B5B6813F4803FA5D14E4B1B6891
:102C4C0013F0020F03D02369012B40F04F814A4A45
:102C5C00136823F0F803616943EAC1031360236826
:102C6C0013F0080F33D0A369002B5CD0434B012227
:102C7C00C3F88024FFF7FEF805463F4B5B6A13F060
:102C8C00020F21D1FFF7F6F8401B0228F5D90320DB
:102C9C002FE1394A136823F0F803616943EAC10351
:102CAC001360DCE7354B00221A60FFF7E3F80546AA
:102CBC00314B1B6813F0020FD1D0FFF7DBF8401B30
:102CCC000228F5D9032014E10120FFF701FF236846
:102CDC0013F0040F00F09680274BDB6913F0805F34
:102CEC0034D1254BDA6942F08052DA61DB6903F0AA
:102CFC0080530193019B0125214B1B6813F4807FAA
:102D0C0026D0E368012B3DD0002B53D103F1804337
:102D1C0003F504331A6A22F001021A621A6A22F0CD
:102D2C0004021A6233E0154B0022C3F88024FFF72B
:102D3C00A1F80546104B5B6A13F0020FC7D0FFF7E2
:102D4C0099F8401B0228F5D90320D2E00025D3E7DF
:102D5C000B4A136843F480731360FFF78BF8064635
:102D6C00074B1B6813F4807FCBD1FFF783F8801BD4
:102D7C006428F5D90320BCE0001002400000424258
:102D8C00007000405F4A136A43F001031362E3686A
:102D9C0033B3FFF76FF806465A4B1B6A13F0020F5A
:102DAC002FD1FFF767F8801B41F288339842F3D993
:102DBC0003209EE0052B09D0524B1A6A22F0010227
:102DCC001A621A6A22F004021A62E0E74D4B1A6A80
:102DDC0042F004021A621A6A42F001021A62D6E741
:102DEC00FFF748F80646474B1B6A13F0020F08D052
:102DFC00FFF740F8801B41F288339842F3D9032047
:102E0C0077E0E5B9E369002B72D03E4A526802F0D4
:102E1C000C02082A56D0022B17D03B4B00221A6604
:102E2C00FFF728F80446374B1B6813F0007F47D098
:102E3C00FFF720F8001B0228F5D9032059E0314A8E
:102E4C00D36923F08053D361DCE72F4B00221A6641
:102E5C00FFF710F805462B4B1B6813F0007F06D0CC
:102E6C00FFF708F8401B0228F5D9032041E0236A3C
:102E7C00B3F5803F1AD023494B6823F47413226AAC
:102E8C00606A024313434B601F4B01221A66FEF724
:102E9C00F1FF04461B4B1B6813F0007F0ED1FEF7AD
:102EAC00E9FF001B0228F5D9032022E0154A5368DC
:102EBC0023F40033A1680B435360DCE7002018E0D7
:102ECC00002016E0012B16D00E4B5B6803F480310A
:102EDC00226A914211D103F47013626A93420ED1AB
:102EEC00002006E001207047012002E0012000E0F4
:102EFC00002002B070BD0120FBE70120F9E70120A2
:102F0C00F7E700BF00100240000042420F4B5B6825
:102F1C0003F00C02082A01D00D487047C3F383421A
:102F2C000C49885C13F4803F0BD0084B5B68C3F3EF
:102F3C004043094AD35C064A02FB00F0B0FBF3F0B5
:102F4C007047064B03FB00F0704700BF00100240B7
:102F5C0000127A00F4480008F048000800093D000F
:102F6C00002800F0A08070B50D460446524B1B683B
:102F7C0003F007038B420BD24F4A136823F007036D
:102F8C000B431360136803F007038B4240F08D80F2
:102F9C00236813F0020F17D013F0040F04D0474A24
:102FAC00536843F4E0635360236813F0080F04D0B4
:102FBC00424A536843F460535360404A536823F0C9
:102FCC00F003A1680B435360236813F0010F31D059
:102FDC006368012B20D0022B25D0384A126812F0DE
:102FEC00020F64D035494A6822F0030213434B6048
:102FFC00FEF740FF0646314B5B6803F00C0362683A
:10300C00B3EB820F16D0FEF735FF801B41F28833ED
:10301C009842F0D9032045E0284A126812F4003F88
:10302C00E0D101203EE0254A126812F0007FD9D190
:10303C00012037E0204B1B6803F00703AB420AD991
:10304C001D4A136823F007032B431360136803F026
:10305C000703AB422DD1236813F0040F06D0174A97
:10306C00536823F4E063E1680B435360236813F067
:10307C00080F07D0114A536823F46053216943EABF
:10308C00C1035360FFF742FF0C4B5B68C3F30313A0
:10309C000B4AD35CD8400B4B18600B4B1868FEF7EF
:1030AC00A5FE002070BD012070470120FAE7012029
:1030BC00F8E70120F6E700BF0020024000100240B4
:1030CC00E04800089C000020A4000020014B186878
:1030DC00704700BF9C00002008B5FFF7F7FF044BBA
:1030EC005B68C3F30223034AD35CD84008BD00BF1E
:1030FC0000100240D848000808B5FFF7E7FF044B62
:10310C005B68C3F3C223034AD35CD84008BD00BF3D
:10311C0000100240D848000870B582B0044603681D
:10312C0013F0010F36D03F4BDB6913F0805F49D1B0
:10313C003C4BDA6942F08052DA61DB6903F0805370
:10314C000193019B0125384B1B6813F4807F3BD006
:10315C00344B1B6A13F4407313D0626802F4407250
:10316C009A420ED02F4A136A23F440702F4901263D
:10317C00C1F840640026C1F84064106213F0010FDE
:10318C0036D1284A136A23F4407361680B431362E7
:10319C00002D3ED1236813F0020F06D0214A53684C
:1031AC0023F44043A1680B435360236813F0100FC2
:1031BC0034D01C4A536823F48003E1680B435360FA
:1031CC0000202CE00025BEE7174A136843F48073F7
:1031DC001360FEF74FFE0646134B1B6813F4807FFB
:1031EC00B6D1FEF747FE801B6428F5D9032016E004
:1031FC00FEF740FE06460B4B1B6A13F0020FC0D1C4
:10320C00FEF738FE801B41F288339842F3D9032035
:10321C0005E0D36923F08053D361BBE7002002B0F3
:10322C0070BD00BF00100240007000400000424220
:10323C0008B502284ED0102803D0012828D0002031
:10324C0052E02B4B5A68186810F080704CD0C2F3C7
:10325C0083432849C85C12F4803F15D0244B5B682B
:10326C00C3F34043244AD25C244BB3FBF2F303FB7D
:10327C0000F01F4B5B6813F4800F35D14000204BDE
:10328C00A3FB003040082FE01E4B03FB00F0F0E7DF
:10329C00174B1B6A40F202321A40B2F5817F24D0E0
:1032AC0003F44073B3F5007F04D0B3F5407F09D02D
:1032BC00002019E00E4A526A12F0020FF5D049F6BE
:1032CC00404011E00A4B186810F400300CD04FF25B
:1032DC00244009E0FFF710FF054B5B68C3F3813313
:1032EC0001335B00B0FBF3F008BD4FF40040FBE78B
:1032FC0000100240084900080449000800127A0036
:10330C00ABAAAAAA00093D002DE9F04782B00546F8
:10331C00884617461E46FEF7ADFD0A9B1B1A03EBAB
:10332C000609FEF7A7FD8246284B1B68C3F3CB3377
:10333C0009FB03F301932B689C6838EA04040CBF67
:10334C0001230023BB423DD0B6F1FF3FF3D0FEF783
:10335C0091FDA0EB0A00484507D2019A02B14A46FA
:10336C00019B013B01939146E5E72A68536823F0E2
:10337C00E00353606B68B3F5827F0BD0AB6AB3F597
:10338C00005F14D0012385F85130002385F85030AC
:10339C00032018E0AB68B3F5004F02D0B3F5806F93
:1033AC00ECD12A68136823F040031360E6E72A681F
:1033BC00136823F4005313602A68136843F4005312
:1033CC001360DFE7002002B0BDE8F0879C0000200E
:1033DC0070B582B006460C46154600920B4601228B
:1033EC000221FFF791FF48B9009523460022802166
:1033FC003046FFF789FF38B902B070BD736D43F0EA
:10340C00200373650320F7E7736D43F020037365A6
:10341C000320F1E7002856D010B50446436A33B9AF
:10342C004368B3F5827F05D00023C36102E000231B
:10343C00036143610023A36294F85130002B3CD00C
:10344C00022384F851302268136823F04003136080
:10345C00636803F48273A26802F404421343E268C3
:10346C0002F400621343226902F002021343626900
:10347C0002F001021343A26902F400721343E269E1
:10348C0002F038021343226A02F080021343A26A4C
:10349C0002F40052216813430B60638B226803F023
:1034AC00040353602268D36923F40063D3610020C2
:1034BC006065012384F8513010BD84F850302046EB
:1034CC00FEF722F9BCE7012070472DE9F04383B0E9
:1034DC000446884691461F460A9DFEF7CBFC0646DD
:1034EC0094F85130DBB26268012B0AD0B2F5827FBE
:1034FC0040F00581A268002A40F00581042B40F0C1
:10350C000481B8F1000F00F00281B9F1000F00F056
:10351C000081002F00F0FF8094F85030012B00F058
:10352C00FC80012384F8503094F85130DBB2042B2A
:10353C0002D0052384F8513000236365C4F8389019
:10354C00E787A787C4F83080E786A786236463647F
:10355C0023681A6812F0400F03D11A6842F0400237
:10356C001A60E368B3F5006F11D063680BB1012FDB
:10357C000BD1226B236812781A73236B01332363EC
:10358C00E38E9BB2013B9BB2E386012771E063683B
:10359C000BB1012F0BD1226B23681288DA60236BDD
:1035AC0002332363E38E9BB2013B9BB2E38601277C
:1035BC001BE023689A6812F0010F0ED0E28F92B2D2
:1035CC005AB1DA68A36B1A80A36B0233A363E38F3F
:1035DC009BB2013B9BB2E3870127FEF74BFC801BA0
:1035EC00A84202D3B5F1FF3F1ED1E38E9BB21BB9AB
:1035FC00E38F9BB2002B62D023689A6812F0020F03
:10360C00D7D0E28E92B2002AD3D0002FD1D0226B29
:10361C001288DA60236B02332363E38E9BB2013B87
:10362C009BB2E3860027C4E7012384F851300023C2
:10363C0084F85030032063E023689A6812F0010F7D
:10364C000ED0E28F92B25AB1DA68A36B1A70A36BE8
:10365C000133A363E38F9BB2013B9BB2E38701274A
:10366C00FEF708FC831BAB4202D3B5F1FF3F1ED122
:10367C00EDB1E38E9BB213B9E38F9BB2FBB1236820
:10368C009A6812F0020FD7D0E28E92B2002AD3D0F1
:10369C00002FD1D0226B12781A73236B0133236362
:1036AC00E38E9BB2013B9BB2E3860027C4E7012368
:1036BC0084F85130002384F85030032020E0324647
:1036CC0029462046FFF784FE90B9A36833B90193CD
:1036DC002368DA6801929B680193019B012384F8AB
:1036EC005130002384F85030636D4BB1012007E05A
:1036FC0020236365002384F85030012000E0022071
:10370C0003B0BDE8F0830220FAE70220F8E70120BD
:10371C00F6E70120F4E70120F2E70220F0E770471A
:10372C0030B585B00446026851689368C3F38010C5
:10373C0013F0400F05D113F0010F02D011F0400F20
:10374C005AD113F0020F02D011F0800F58D1C3F3ED
:10375C00401513F0200F01D1002854D011F0200F88
:10376C0051D078B194F85130DBB2032B4DD0636D4E
:10377C0043F00403636500230193D36801939368BA
:10378C000193019B65B1636D43F0010363650023F5
:10379C00039393680393136823F040031360039B14
:1037AC00636D002B2FD02268536823F0E003536025
:1037BC00012384F8513011F0030F2ED02268536886
:1037CC0023F003035360E36C4BB1164A5A63E06C6D
:1037DC00FEF774FF18B1636D43F040036365A36C8F
:1037EC008BB1104A5A63A06CFEF768FF58B1636D39
:1037FC0043F04003636506E0236C2046984702E0E3
:10380C00636C2046984705B030BD00230293D36803
:10381C00029393680293029BF5E72046FFF77FFF24
:10382C00F1E700BF3538000808B5406A0023C387AC
:10383C00C386FFF774FF08BD30B4026A036A23F035
:10384C00010303624568836923F073030C681C430E
:10385C0022F002028B6813430B4A904206D045605B
:10386C0084614A684263036230BC704723F00803EA
:10387C00CA681A4322F0040325F440754A692A43A6
:10388C008D691543EBE700BF002C014030B4036A8F
:10389C00026A22F4807202624468C26922F07302E6
:1038AC000D68154323F400738A6843EA02230D4A1A
:1038BC00904206D04460C5614A68C263036230BC62
:1038CC00704723F40063CA6843EA022323F480633D
:1038DC0024F440544A6944EA02148A6944EA021402
:1038EC00E8E700BF002C014030B4036A026A22F4FE
:1038FC00805202624468C26922F4E6420D6842EAD0
:10390C00052223F400538D6843EA0533074DA84282
:10391C0006D04460C2614A680264036230BC7047DE
:10392C0024F480444D6944EA8514F2E7002C0140EC
:10393C0030B4056A046A24F010040462846924F427
:10394C00407C4CEA022C2CF4704C1B039BB243EAD7
:10395C000C0325F0A005090101F0A00129438361A6
:10396C00016230BC704730B4056A046A24F4807478
:10397C000462C46924F0030C4CEA020C2CF0F00C29
:10398C001B01DBB243EA0C0325F40075090201F4B8
:10399C0000712943C361016230BC704730B4056AC1
:1039AC00046A24F480540462C46924F4407C4CEA14
:1039BC00022C2CF4704C1B039BB243EA0C0325F431
:1039CC000055090301F400512943C361016230BC65
:1039DC007047000090F83D30DBB2012B27D1022359
:1039EC0080F83D300268D36843F00103D36003686C
:1039FC00114A934210D0B3F1804F0DD0A2F59432FE
:103A0C00934209D002F58062934205D01A6842F0C5
:103A1C0001021A60002070479A6802F00702062A19
:103A2C0007D01A6842F001021A600020704701208A
:103A3C0070470020704700BF002C01407047704752
:103A4C007047704770B504460368DE681D6915F051
:103A5C00020F10D016F0020F0DD06FF002021A6197
:103A6C000123037703689B6913F0030F5ED0FFF704
:103A7C00E6FF0023237715F0040F12D016F0040F85
:103A8C000FD023686FF004021A6102232377236896
:103A9C009B6913F4407F4FD02046FFF7D0FF0023E3
:103AAC00237715F0080F12D016F0080F0FD02368EB
:103ABC006FF008021A61042323772368DB6913F083
:103ACC00030F40D02046FFF7BAFF0023237715F0F1
:103ADC00100F12D016F0100F0FD023686FF01002D9
:103AEC001A61082323772368DB6913F4407F31D0F4
:103AFC002046FFF7A4FF0023237715F0010F02D017
:103B0C0016F0010F2DD115F0800F02D016F0800F9A
:103B1C002FD115F0400F02D016F0400F31D115F017
:103B2C00200F02D016F0200F33D170BDFFF786FFA7
:103B3C002046FFF785FF9CE72046FFF77FFF2046D6
:103B4C00FFF77EFFABE72046FFF778FF2046FFF735
:103B5C0077FFBAE72046FFF771FF2046FFF770FFAB
:103B6C00C9E723686FF001021A612046FDF790F84F
:103B7C00C9E723686FF080021A61204600F051FB00
:103B8C00C7E723686FF040021A612046FFF759FF20
:103B9C00C5E723686FF020021A61204600F040FB55
:103BAC00C3E7000003681F4A90420AD0B0F1804F6F
:103BBC0007D0A2F59432904203D002F58062904275
:103BCC0003D123F070034A681343164A90420AD07B
:103BDC00B0F1804F07D0A2F59432904203D002F599
:103BEC008062904203D123F44073CA68134323F0DC
:103BFC0080034A69134303608B68C3620B6883625A
:103C0C00084B98420AD001234361036913F0010F5A
:103C1C0003D0036923F00103036170470B6903634D
:103C2C00F1E700BF002C014040B310B5044690F8FA
:103C3C003D30F3B1022384F83D30214651F8040B9A
:103C4C00FFF7B0FF012384F8463084F83E3084F847
:103C5C003F3084F8403084F8413084F8423084F8A6
:103C6C00433084F8443084F8453084F83D300020EB
:103C7C0010BD80F83C30FDF753FFDBE701207047A7
:103C8C0040B310B5044690F83D30F3B1022384F8EC
:103C9C003D30214651F8040BFFF784FF012384F8D3
:103CAC00463084F83E3084F83F3084F8403084F855
:103CBC00413084F8423084F8433084F8443084F83E
:103CCC00453084F83D30002010BD80F83C30FDF7C5
:103CDC0047FFDBE701207047002856D070B50D4632
:103CEC00044690F83D30002B4AD0022384F83D3036
:103CFC002268936823F4804323F0070393602146E2
:103D0C0051F8040BFFF74EFF21688B688A690E6A25
:103D1C002868184322F4407222F00302AB68D5F8ED
:103D2C0018C043EA0C23134323F47C4323F0FC0315
:103D3C00EA68D5F81CC042EA0C221A432B6A1B0312
:103D4C00D5F810C043EA0C13134326F022066A6818
:103D5C006D6942EA05123243886021688B612368E1
:103D6C001A62012384F8463084F83E3084F83F30E0
:103D7C0084F8423084F8433084F83D30002070BD24
:103D8C0080F83C30FDF75EFEAFE701207047000085
:103D9C0030B4036A026A22F010020262446882693B
:103DAC0022F4E6420D6842EA052223F020038D68D6
:103DBC0043EA05130C4DA84206D0446082614A6860
:103DCC008263036230BC704723F08003CD6843EA02
:103DDC00051323F0400324F440644D6944EA850440
:103DEC008D6944EA8504E8E7002C014038B590F869
:103DFC003C30012B66D004460D46012380F83C3044
:103E0C000C2A5AD8DFE802F0075959591B5959594D
:103E1C003059595944000068FFF70EFD2268936928
:103E2C0043F0080393612268936923F004039361C0
:103E3C002268936929690B43936100203EE0006876
:103E4C00FFF7A6FF2268936943F40063936122682D
:103E5C00936923F48063936122689369296943EA27
:103E6C0001239361002029E00068FFF70FFD226811
:103E7C00D36943F00803D3612268D36923F00403A8
:103E8C00D3612268D36929690B43D361002015E003
:103E9C000068FFF729FD2268D36943F40063D361FE
:103EAC002268D36923F48063D3612268D3692969BA
:103EBC0043EA0123D361002000E00120002384F8B1
:103ECC003C3038BD0220FCE770B4056A046A24F06B
:103EDC00010404628469114EB0420DD0B0F1804FE0
:103EEC000AD0A6F59436B04206D006F58066B042EC
:103EFC0002D044F0010202E024F00304224322F039
:103F0C00F0021B01DBB2134325F00A0201F00A0197
:103F1C0011438361016270BC704700BF002C0140EB
:103F2C0038B590F83C30012B5ED004460D46012389
:103F3C0080F83C300C2A52D8DFE802F0075151517E
:103F4C00195151512C5151513E00CB684A680968A6
:103F5C000068FFF7B9FF2268936923F00C039361A3
:103F6C0022689369A9680B439361002038E0CB6801
:103F7C004A6809680068FFF7DBFC2268936923F440
:103F8C004063936122689369A96843EA01239361B2
:103F9C00002025E0CB684A6809680068FFF7E3FC5D
:103FAC002268D36923F00C03D3612268D369A96812
:103FBC000B43D361002013E0CB684A6809680068A2
:103FCC00FFF7ECFC2268D36923F44063D3612268C9
:103FDC00D369A96843EA0123D361002000E00120E2
:103FEC00002384F83C3038BD0220FCE701F01F01AF
:103FFC004FF0010C0CFA01FC036A23EA0C03036278
:10400C00036A8A40134303627047000010B50446EC
:10401C00084651BB94F83E30DBB2013B18BF01237C
:10402C00002B5BD1002839D1022384F83E300122C9
:10403C0001462068FFF7DAFF23682A4A93423DD0F5
:10404C002368284A93423ED0B3F1804F3BD0A2F56F
:10405C009432934237D002F58062934233D01A687F
:10406C0042F001021A60002039E0042908D0082926
:10407C000DD094F84130DBB2013B18BF0123CFE7E0
:10408C0094F83F30DBB2013B18BF0123C8E794F82A
:10409C004030DBB2013B18BF0123C1E7042805D037
:1040AC00082807D0022384F84130C0E7022384F8A3
:1040BC003F30BCE7022384F84030B8E75A6C42F436
:1040CC0000425A64BCE79A6802F00702062A07D03D
:1040DC001A6842F001021A60002000E0012010BDB5
:1040EC000020FCE7002C014038B5044690F83E0057
:1040FC00C0B294F83F3094F84220D2B294F843C046
:10410C000D46B1B9012849D1012A48D1022384F8BE
:10411C003E3084F842307DB3042D39D00122002189
:10412C002068FFF763FF012204212068FFF75EFF80
:10413C0027E0DBB25FFA8CFC042912D0012833D1C2
:10414C00012B2CD1012A31D1BCF1010F30D102232A
:10415C0084F83E3084F83F3084F8423084F84330A1
:10416C00D9E7012B1CD1BCF1010F1BD1022384F820
:10417C003F3084F84330CEE7012200212068FFF75E
:10418C0035FF2268136843F001031360002006E03A
:10419C00012204212068FFF729FFF2E7012038BD36
:1041AC000120FCE71846FAE70120F8E71846F6E785
:1041BC001046F4E790F83C20012A2CD010B40346AA
:1041CC00012280F83C20022280F83D2002685068D1
:1041DC00946820F0700C086840EA0C0050601A6873
:1041EC000E4882420AD0B2F1804F07D0A0F594302D
:1041FC00824203D000F58060824204D124F0800416
:10420C00496821439160012283F83D20002083F806
:10421C003C0010BC70470220704700BF002C0140CE
:10422C0070477047026802F10C0353E8003F23F417
:10423C0090730C3242E800310029F3D1026802F18C
:10424C00140353E8003F23F00103143242E8003119
:10425C000029F3D1036B012B05D0202380F84230C9
:10426C00002303637047026802F10C0353E8003F1C
:10427C0023F010030C3242E800310029F3D1ECE7B3
:10428C0090F84130DBB2212B01D0022070478368BB
:10429C00B3F5805F17D0036A5A1C02621A78036860
:1042AC005A60C38C9BB2013B9BB2C3844BB902686E
:1042BC00D36823F08003D3600268D36843F04003D3
:1042CC00D360002070470369002BE4D1036A1B887C
:1042DC000268C3F308035360036A02330362E0E726
:1042EC0010B504460268136923F44053C1680B43AC
:1042FC00136183680269134342691A430168CB68EE
:10430C0023F4B05323F00C031343CB6002685369BE
:10431C0023F4407381690B4353610268134B9A4237
:10432C0020D0FEF7D9FE024602EB820202EB82029B
:10433C0063689B00B2FBF3F20D48A0FB0231490904
:10434C00642303FB11231B013233A0FB03035B0922
:10435C0003F0F00202EB011203F00F032168134487
:10436C008B6010BDFEF7C8FE0246DDE70038014049
:10437C001F85EB5160B310B5044690F8413013B370
:10438C00242384F841302268D36823F40053D3608B
:10439C002046FFF7A5FF2268136923F490431361AD
:1043AC002268536923F02A0353612268D36843F4CB
:1043BC000053D36000206064202384F8413084F8DB
:1043CC004230606310BD80F84030FDF78DFCD7E7BC
:1043DC0001207047704708B50168CA6822F0400296
:1043EC00CA60202280F84120FFF7F4FF002008BDAE
:1043FC007047704708B5406A0023C385C384FFF734
:10440C00F8FF08BD704790F84230DBB2222B69D11F
:10441C008368B3F5805F4FD0826AB3F5805F04D0B8
:10442C00002B56D10369002B53D103685B681370C2
:10443C00836A01338362C38D9BB2013B9BB2C385FC
:10444C00002B51D100B583B00268D36823F0200350
:10445C00D3600268D36823F48073D3600268536915
:10446C0023F001035361202380F84230002343637F
:10447C00036B012B33D100230363026802F10C039D
:10448C0053E8003F23F010030C3242E800310029BE
:10449C00F3D103681A6812F0100F06D000220192B3
:1044AC001A6801925B680193019B818DFFF7AAFF4B
:1044BC00002003B05DF804FB0269002AACD1826ACB
:1044CC0003685B68C3F308031380836A0233836257
:1044DC00B1E703685B6803F07F031370A8E7FFF78D
:1044EC0087FFE5E7022070470020704710B582B0C7
:1044FC00044602681368D068516913F00F0F09D194
:10450C0013F0200F0CD010F0200F09D02046FFF72D
:10451C007AFF16E011F0010115D110F4907F12D141
:10452C00216B012979D013F0800F03D010F0800F8C
:10453C0040F0138113F0400F03D010F0400F40F007
:10454C00108102B010BD13F0010F06D010F4807F63
:10455C0003D0626C42F00102626413F0040F04D0C9
:10456C0019B1626C42F00202626413F0020F04D0C3
:10457C0019B1626C42F00402626413F0080F07D0A8
:10458C0010F0200F00D119B1626C42F00802626485
:10459C00626C002AD5D013F0200F02D010F0200F3F
:1045AC0029D123685B6903F04003626C12F0080F99
:1045BC0000D163B32046FFF735FE23685B6913F027
:1045CC00400F20D0226802F1140353E8003F23F07F
:1045DC004003143242E800310029F3D1E36B73B18C
:1045EC00624A5A63E06BFEF769F80028A9D0E06BC9
:1045FC00436B9847A5E72046FFF705FFD1E7204618
:10460C00FFF7F7FE9DE72046FFF7F3FE99E72046FC
:10461C00FFF7EFFE0023636493E713F0100F82D0D3
:10462C0010F0100F3FF47FAF002301931368019338
:10463C0053680193019B536913F0400F51D0E26B07
:10464C0013685B689BB2002B3FF47BAFA18D994242
:10465C007FF677AFE3859369202B37D0226802F180
:10466C000C0353E8003F23F480730C3242E8003112
:10467C000029F3D1226802F1140353E8003F23F020
:10468C000103143242E800310029F3D1226802F10F
:10469C00140353E8003F23F04003143242E8003186
:1046AC000029F3D1202384F84230002323632268AD
:1046BC0002F10C0353E8003F23F010030C3242E8E4
:1046CC0000310029F3D1E06BFDF7D5FF02236363C2
:1046DC00A18DE38D9BB2C91A89B22046FFF792FED9
:1046EC002FE7A18DE38D9BB2C91A89B2E38D9BB2E2
:1046FC00002B3FF426AF00293FF423AF226802F1D0
:10470C000C0353E8003F23F490730C3242E8003062
:10471C000028F3D1226802F1140353E8003F23F080
:10472C000103143242E800300028F3D1202384F82E
:10473C00423000232363226802F10C0353E8003F4C
:10474C0023F010030C3242E800300028F3D102238E
:10475C0063632046FFF756FEF3E62046FFF790FD15
:10476C00EFE62046FFF737FEEBE600BF01440008FA
:10477C00FDF7BAF80B480C490C4A002302E0D45858
:10478C00C4500433C4188C42F9D3094A094C002391
:10479C0001E013600432A242FBD300F067F8FCF78F
:1047AC008DFB704700000020A80000202049000865
:1047BC00A800002078060020FEE7000091F0000F12
:1047CC0004BF6FF00040704710B54FF0010E90EA37
:1047DC00010F48BF4FF0000E002848BF404200298F
:1047EC0048BF4942B0FA80F4122CA8BF122400FA38
:1047FC0004F2C4F1120CB2FBF1F0B0FA80F39C4558
:10480C00A4BFCEF1004010BD01FB1022B2FA82F41D
:10481C0064450EDAACEB040C02FA04F200FA04F074
:10482C00B2FBF1F301FB13221844B2FA82F4644593
:10483C00F0DD02FA0CF200FA0CF0B2FBF1F31844C2
:10484C009EF0000F08BF404210BD00BF80FB01016D
:10485C004FEA904000EB8130704700BF03460244A2
:10486C00934200D1704703F8011BF9E770B500269D
:10487C000C4D0D4C641BA410A64209D100F01AF883
:10488C0000260A4D0A4C641BA410A64205D170BD2B
:10489C0055F8043B98470136EEE755F8043B98472A
:1048AC000136F2E7184900081849000818490008B1
:1048BC001C490008F8B500BFF8BC08BC9E46704700
:0C48CC00F8B500BFF8BC08BC9E46704761
:1048D80000000000010203040000000000000000C6
:1048E8000102030406070809010200000203040587
:1048F800060708090A0B0C0D0E0F10100102000024
:1049080002030405060708090A0B0C0D0E0F101008
:044918003906000854
:04491C001506000874
:104920003E3F8C3A3E3F8C3A010808082C04002098
:10493000000C014001000000000000000000000029
:104940000000000000000000000000000000000067
:104950002C04002000100140200000000000000096
:104960000000000000000000000000000000000047
:10497000000000002C040020001001401000000086
:104980000000000000000000000000000000000027
:1049900000000000000000002C040020000801407E
:1049A00010000000000000000000000000000000F7
:1049B00000000000000000000000000000127A006B
:0849C0000100000010000000DE
:040000050800477D2B
:00000001FF
