:020000040800F2
:1000000000500020D9220008390500083B050008EF
:100010003D0500083F0500084105000800000000FC
:100020000000000000000000000000004305000880
:1000300045050008000000004705000849050008C4
:100040002123000821230008212300082123000880
:100050002123000821230008212300082123000870
:100060002123000821230008212300082123000860
:100070002123000821230008212300082123000850
:100080002123000821230008212300082123000840
:100090002123000821230008212300082123000830
:1000A0002123000821230008212300082123000820
:1000B0002123000821230008212300082123000810
:1000C0002123000821230008212300082123000800
:1000D00021230008212300082123000821230008F0
:1000E000212300082123000821230008000000002C
:1000F0000000000000000000000000000000000000
:0C01000000000000000000005FF808F1A3
:10010C0010B5054C237833B9044B13B10448AFF345
:10011C0000800123237010BD10000020000000009F
:10012C007C23000808B5034B1BB103490348AFF30C
:10013C00008008BD00000000140000207C23000893
:10014C0000B585B000230193029303931148124A22
:10015C0002608360037303754FF46022C2614360D5
:10016C000123036100F04AFD68B9022301930123C6
:10017C0002930023039301A9064800F073FC28B9ED
:10018C0005B05DF804FB00F0C3F8EEE700F0C0F832
:10019C00F6E700BF2C0000200024014000B587B01A
:1001AC00002302930393049305930268114B9A4224
:1001BC0002D007B05DF804FB03F56C439A6942F476
:1001CC0000729A619A6902F400720092009A9A691C
:1001DC0042F004029A619B6903F004030193019BB2
:1001EC000C2302930323039302A9034800F0F4FDAC
:1001FC00DFE700BF00240140000801402DE9F04377
:10020C0089B0002404940594069407943C4B9A6995
:10021C0042F010029A619A6902F010020092009A60
:10022C009A6942F020029A619A6902F020020192C6
:10023C00019A9A6942F004029A619A6902F00402E6
:10024C000292029A9A6942F008029A619B6903F041
:10025C0008030393039BDFF8AC9022463C214846ED
:10026C0000F0CFFE284D22461221284600F0C9FE90
:10027C00264E224643F21301304600F0C2FE40F2F5
:10028C00033304930594069404A9484600F0A4FD96
:10029C003C2304934FF00108CDF8148006940227F8
:1002AC00079704A9484600F097FD12230493CDF854
:1002BC0014800694079704A9284600F08DFD43F29C
:1002CC0013030493CDF814800694079704A93046C1
:1002DC0000F082FD4CF2200304930594069404A9CB
:1002EC00304600F079FD4FF4806304930594069436
:1002FC0004A9284600F070FD09B0BDE8F08300BFEA
:10030C00001002400010014000080140000C0140A8
:10031C0072B6FEE700B595B0282200210DEB020065
:10032C0001F0F9FF002305930693079308930993B3
:10033C00019302930393049301220A924FF48033A6
:10034C000B930E920222119212934FF4E01313931B
:10035C000AA800F073FEC8B90F2305930221069179
:10036C00002307934FF480620892099305A801F0CB
:10037C0097F868B9022301934FF40043039301A843
:10038C0001F06AF930B915B05DF804FBFFF7C0FF56
:10039C00FFF7BEFFFFF7BCFF00B583B000F02AFBF0
:1003AC00FFF7B8FFFFF72AFFFFF7CAFE00F040F88F
:1003BC0000F0CAF800F0FAF800F04EFA00F026F956
:1003CC0000F094FA052000F039FB134C01224FF495
:1003DC000051204600F015FE012000F02FFB0F4DC0
:1003EC0000221021284600F00CFE4FF0FF33009342
:1003FC0002230B4A0B490C4801F09BFA01221021F5
:10040C00284600F0FEFD4FF40041204600F0F2FDBE
:10041C00064B1870FEE700BF000C014000080140BD
:10042C005E00002000000020600000205C00002026
:10043C0008B50E480E4B03604FF4827343600023E3
:10044C008360C360036143614FF4007282611822C0
:10045C00C2610362436283620A23C36201F00EFA33
:10046C0000B908BDFFF754FFFBE700BF6000002098
:10047C000030014010B586B000230293039304931F
:10048C0005930268164B9A4201D006B010BD03F5D5
:10049C0060439A6942F480529A619A6902F48052DC
:1004AC000092009A9A6942F004029A619B6903F0E7
:1004BC0004030193019BA0230293022303930323C0
:1004CC000593084C02A9204600F086FC40230293B9
:1004DC0000230393049302A9204600F07DFCD4E78B
:1004EC00003001400008014082B00E4B9A6942F086
:1004FC0001029A619A6902F001020092009ADA698B
:10050C0042F08052DA61DB6903F080530193019B66
:10051C00054A536823F0E06343F00073536002B064
:10052C00704700BF0010024000000140FEE7FEE7EC
:10053C00FEE7FEE7FEE770477047704708B500F02E
:10054C006BFA08BD7047000000B58DB02422002165
:10055C0003A801F0E0FE0023019302931148124A14
:10056C000260436083604FF6FF72C26003614361B7
:10057C008361012303930593099303A901F06CFC98
:10058C0050B900230193029301A9064801F0EEFD36
:10059C0028B90DB05DF804FBFFF7BAFEF1E7FFF7E1
:1005AC00B7FEF6E790010020002C014000B58DB09D
:1005BC002422002103A801F0AEFE00230193029334
:1005CC0011484FF080420260436083604FF6FF7227
:1005DC00C26003618361012303930593099303A90B
:1005EC0001F03AFC50B900230193029301A906488B
:1005FC0001F0BCFD28B90DB05DF804FBFFF788FED7
:10060C00F1E7FFF785FEF6E74801002000B587B05B
:10061C0000230493059300930193029303931B48C7
:10062C001B4A0260436083604FF6FF72C260036135
:10063C00836101F0E5FBE0B900230493059304A961
:10064C00124801F093FDB8B90023009301220192E6
:10065C0002930393082269460C4801F021FD70B9FE
:10066C000C226946094801F01BFD58B907B05DF82A
:10067C0004FBFFF74DFEDFE7FFF74AFEE4E7FFF769
:10068C0047FEEDE7FFF744FEF0E700BFB80000209F
:10069C000008004000B58BB0002306930793089325
:1006AC00099303682D4A934205D0B3F1804F1DD0B6
:1006BC000BB05DF804FB2A4B9A6942F400629A6114
:1006CC009A6902F400620192019A9A6942F004025A
:1006DC009A619B6903F004030293029B4FF44073ED
:1006EC00069306A91F4800F077FBE1E703F50433F6
:1006FC00DA6942F00102DA61DA6902F0010203926E
:10070C00039A9A6942F004029A619A6902F004020F
:10071C000492049A9A6942F008029A619B6903F068
:10072C0008030593059B4FF40043069306A90D4857
:10073C0000F052FB0823069300230793089306A9A5
:10074C00094800F049FB094A536823F4407343F00D
:10075C00E06343F480735360AAE700BF002C0140B0
:10076C000010024000080140000C01400000014054
:10077C000268094B9A4200D0704782B003F50333EC
:10078C00DA6942F00202DA61DB6903F002030193D9
:10079C00019B02B0704700BF0004004000B587B059
:1007AC00002302930393049305930268104B9A421F
:1007BC0002D007B05DF804FB03F50233DA6942F0AE
:1007CC000402DA61DA6902F004020092009A9A6972
:1007DC0042F008029A619B6903F008030193019BA4
:1007EC004FF44073029302A9024800F0F5FAE0E7D7
:1007FC0000080040000C014000B587B000230293B4
:10080C000393049305930268104B9A4202D007B0ED
:10081C005DF804FB03F503339A6942F010029A6108
:10082C009B6903F010030193019BC02302930223E5
:10083C000393059302A9064800F0CEFA054A5368C3
:10084C0043F0E06343F440635360E0E7000400408E
:10085C00001001400000014000B58BB0002308934C
:10086C0009930193029303930493059306930793BF
:10087C001C481D4A0260436083604FF6FF72C260E1
:10088C000361836101F090FAF8B90023089309938E
:10089C0008A9144801F06AFCD0B960230193002226
:1008AC0002920392059201A90E4801F05FFB90B9E8
:1008BC0004220DEB02010B4801F058FB70B90948FA
:1008CC00FFF79AFF0BB05DF804FBFFF721FDDCE7A7
:1008DC00FFF71EFDE1E7FFF71BFDE9E7FFF718FD4A
:1008EC00EDE700BF000100200004004008B50A48F5
:1008FC000A4B03604FF4E133436000238360C36011
:10090C0003610C2242618361C36101F0AFFC00B949
:10091C0008BDFFF7FDFCFBE7D801002000380140C3
:10092C0010B586B0002302930393049305930268D9
:10093C001A4B9A4201D006B010BD03F558439A6980
:10094C0042F480429A619A6902F480420092009AC1
:10095C009A6942F008029A619B6903F008030193BB
:10096C00019B4023029302230393032305930C4C16
:10097C0002A9204600F030FA80230293002303934F
:10098C00049302A9204600F027FA064A536843F064
:10099C00E06343F004035360CDE700BF003801402F
:1009AC00000C01400000014010B504460E4B1A78B3
:1009BC004FF47A73B3FBF2F30C4A1068B0FBF3F00C
:1009CC0000F0F6F968B90F2C01D901200AE00022D9
:1009DC0021464FF0FF3000F0DBF9054B1C60002086
:1009EC0000E0012010BD00BF080000200400002022
:1009FC000C00002008B5074A136843F0100313607D
:100A0C00032000F0B3F90F20FFF7CEFFFFF76CFDCA
:100A1C00002008BD00200240034A1168034B1B78DC
:100A2C000B441360704700BF200200200800002018
:100A3C00014B1868704700BF2002002038B50446EF
:100A4C00FFF7F6FF0546B4F1FF3F02D0044B1B78CD
:100A5C001C44FFF7EDFF401BA042FAD338BD00BF8A
:100A6C000800002030B482B00022019290F82420BB
:100A7C00012A00F08F800346012280F824204A6866
:100A8C00062A2DD80468606B02EB8202053A4FF0FF
:100A9C001F0C0CFA02FC20EA0C000D6805FA02F29D
:100AAC00024362630A68092A38D91C68E06802EBC1
:100ABC0042021E3A4FF0070C0CFA02FC20EA0C0022
:100ACC008D6805FA02F20243E2600A68103A012AC4
:100ADC0034D90020002283F8242002B030BC7047A7
:100AEC000C2A0DD80568286B02EB8202233A1F24CE
:100AFC00944020EA04000C68944020432863D1E71A
:100B0C000568E86A02EB8202413A1F24944020EA0D
:100B1C0004000C6894402043E862C3E71C68206919
:100B2C0002EB42024FF0070C0CFA02FC20EA0C001C
:100B3C008D6805FA02F202432261C6E71A6816486C
:100B4C00824205D09A6A42F020029A620120C1E7E3
:100B5C00906810F4000F1BD1906840F40000906076
:100B6C000A68102A01D00020B4E70C4A12680C491C
:100B7C00A1FB0212920C02EB82025200019202E0E3
:100B8C00019A013A0192019A002AF9D10020A1E7B9
:100B9C0000209FE70220A0E7002401400400002071
:100BAC0083DE1B4338B503689A6812F0010F01D13C
:100BBC00002038BD04469A6822F001029A60FFF7C3
:100BCC0037FF054623689B6813F0010F13D0FFF71E
:100BDC002FFF431B022BF5D923689B6813F0010FE1
:100BEC00F0D0A36A43F01003A362E36A43F001035D
:100BFC00E3620120DDE70020DBE7000000287BD06A
:100C0C0070B50446836A002B4DD02046FFF7CAFF0F
:100C1C00A36A13F0100369D1002867D1A26A22F4E9
:100C2C00885222F0020242F00202A2626268E1697A
:100C3C000A43217B42EA4102A568B5F5807F02D0C8
:100C4C00012D36D01D46267D012E35D026687168C3
:100C5C0021F46941294371602568AE682749314008
:100C6C001143A960A168B1F5807F01D0012902D19F
:100C7C002369013B1B052568E96A21F470010B43CC
:100C8C00EB62236899681E4B0B409A4225D0A36AED
:100C9C0023F0120343F01003A362E36A43F0010351
:100CAC00E362012027E0C36280F82430FFF776FA74
:100CBC00ABE74FF48075C6E731B9A169013945EA54
:100CCC00413141F40065C1E7A16A41F02001A16204
:100CDC00E16A41F00101E162B8E70023E362A36A33
:100CEC0023F0030343F00103A36204E0A36A43F07F
:100CFC001003A362012070BD01207047FDF7E1FFD6
:100D0C00FE0E1FFF002808DB0901C9B200F160408C
:100D1C0000F5614080F80013704700F00F000901E6
:100D2C00C9B2014B1954704714ED00E000B500F046
:100D3C000700C0F1070CBCF1040F28BF4FF0040CE6
:100D4C00031D062B0FD9C31E4FF0FF3E0EFA0CF0FD
:100D5C0021EA000199400EFA03FE22EA0E0241EA52
:100D6C0002005DF804FB0023EEE70000074AD3689D
:100D7C0023F4E0631B041B0C000200F4E06003434B
:100D8C0043F0BF6343F40033D360704700ED00E0E1
:100D9C0010B50446054BD868C0F30220FFF7C6FF18
:100DAC0001462046FFF7AEFF10BD00BF00ED00E08E
:100DBC000138B0F1807F0BD24FF0E0235861054A27
:100DCC00F02182F823100020986107221A617047E5
:100DDC000120704700ED00E070B582B00024A446FD
:100DEC00A1E07E4DAB4214D00CD8A5F58015AB42DA
:100DFC000FD005F57025AB420BD0A5F58015AB4295
:100E0C0010D106E0764DAB4203D005F58035AB42F0
:100E1C0008D18B68002B50D0012B49D0426108249B
:100E2C0000E0CC68BEF1FF0F49D806464FEA8C02B1
:100E3C0033680F25954023EA050304FA02F21343A5
:100E4C0033604B6813F0805F6BD0664B9A6942F04D
:100E5C0001029A619B6903F001030193019B4FEA24
:100E6C009C02951C604B53F825600CF00305AD00FB
:100E7C000F23AB4026EA03065C4B984226D003F5C1
:100E8C008063984200F08C8003F58063984200F0F8
:100E9C00898003F58063984216D0042317E0CC6850
:100EAC000434BFE7CC680834BCE7CC680C34B9E731
:100EBC0002610824B6E70024B4E70424B2E7061D57
:100ECC00ACF108029200B3E7032300E00023AB402F
:100EDC0033430232444D45F822304B6813F4801FE3
:100EEC0062D0434A936843EA0E0393604B6813F451
:100EFC00001F5FD03E4AD36843EA0E03D3604B68B1
:100F0C0013F4003F5CD03A4A536843EA0E03536033
:100F1C004B6813F4803F59D0354A136843EA0E03EB
:100F2C0013600CF1010C0B6833FA0CF254D0012253
:100F3C0002FA0CF203EA020E32EA0303F1D14B6817
:100F4C00122B3FF64EAF122B3FF66CAF01A555F8A6
:100F5C0023F000BF1F0E00082F0E0008B10E000872
:100F6C00C30E0008310E0008310E0008310E0008C7
:100F7C00310E0008310E0008310E0008310E000849
:100F8C00310E0008310E0008310E0008310E000839
:100F9C00310E0008310E0008AB0E0008B70E000829
:100FAC00012394E7022392E7114A936823EA0E0384
:100FBC0093609BE70E4AD36823EA0E03D3609EE747
:100FCC000B4A536823EA0E035360A1E7084A1368DF
:100FDC0023EA0E031360A4E702B070BD00002210D8
:100FEC0000003110001002400000014000080140D8
:100FFC00000401408368194201D001207047002091
:10100C0070470AB101617047090401617047000023
:10101C0082B0084B1B68084AA2FB03235B0A00FB47
:10102C0003F3019300BF019B5A1E0192002BF9D1CF
:10103C0002B0704704000020D34D6210002800F06D
:10104C00F18170B582B00446036813F0010F2CD007
:10105C00994B5B6803F00C03042B1DD0964B5B681B
:10106C0003F00C03082B12D06368B3F5803F41D01A
:10107C00002B55D103F1804303F504331A6822F495
:10108C0080321A601A6822F480221A6037E08A4B88
:10109C005B6813F4803FE7D0874B1B6813F4003F69
:1010AC0003D06368002B00F0BF81236813F0020F9C
:1010BC0075D0814B5B6813F00C0F5FD07E4B5B6877
:1010CC0003F00C03082B54D02369002B00F08A800A
:1010DC007A4B01221A60FFF7ABFC0546764B1B6876
:1010EC0013F0020F75D1FFF7A3FC401B0228F5D9B2
:1010FC0003209EE1704A136843F4803313606368E5
:10110C0043B3FFF795FC05466B4B1B6813F4003F8C
:10111C00CBD1FFF78DFC401B6428F5D9032088E167
:10112C00B3F5A02F09D0644B1A6822F480321A60F0
:10113C001A6822F480221A60E1E703F18043A3F5D8
:10114C003C331A6842F480221A601A6842F48032E6
:10115C001A60D4E7FFF76CFC0546574B1B6813F479
:10116C00003FA2D0FFF764FC401B6428F5D9032094
:10117C005FE1514B5B6813F4803FA5D14E4B1B686C
:10118C0013F0020F03D02369012B40F04F814A4A20
:10119C00136823F0F803616943EAC1031360236801
:1011AC0013F0080F33D0A369002B5CD0434B012202
:1011BC00C3F88024FFF73CFC05463F4B5B6A13F0F9
:1011CC00020F21D1FFF734FC401B0228F5D9032074
:1011DC002FE1394A136823F0F803616943EAC1032C
:1011EC001360DCE7354B00221A60FFF721FC054643
:1011FC00314B1B6813F0020FD1D0FFF719FC401BC9
:10120C000228F5D9032014E10120FFF701FF236820
:10121C0013F0040F00F09680274BDB6913F0805F0E
:10122C0034D1254BDA6942F08052DA61DB6903F084
:10123C0080530193019B0125214B1B6813F4807F84
:10124C0026D0E368012B3DD0002B53D103F1804312
:10125C0003F504331A6A22F001021A621A6A22F0A8
:10126C0004021A6233E0154B0022C3F88024FFF706
:10127C00DFFB0546104B5B6A13F0020FC7D0FFF77C
:10128C00D7FB401B0228F5D90320D2E00025D3E779
:10129C000B4A136843F480731360FFF7C9FB0646CF
:1012AC00074B1B6813F4807FCBD1FFF7C1FB801B6E
:1012BC006428F5D90320BCE0001002400000424233
:1012CC00007000405F4A136A43F001031362E36845
:1012DC0033B3FFF7ADFB06465A4B1B6A13F0020FF4
:1012EC002FD1FFF7A5FB801B41F288339842F3D92D
:1012FC0003209EE0052B09D0524B1A6A22F0010202
:10130C001A621A6A22F004021A62E0E74D4B1A6A5A
:10131C0042F004021A621A6A42F001021A62D6E71B
:10132C00FFF786FB0646474B1B6A13F0020F08D0EB
:10133C00FFF77EFB801B41F288339842F3D90320E0
:10134C0077E0E5B9E369002B72D03E4A526802F0AF
:10135C000C02082A56D0022B17D03B4B00221A66DF
:10136C00FFF766FB0446374B1B6813F0007F47D032
:10137C00FFF75EFB001B0228F5D9032059E0314A28
:10138C00D36923F08053D361DCE72F4B00221A661C
:10139C00FFF74EFB05462B4B1B6813F0007F06D066
:1013AC00FFF746FB401B0228F5D9032041E0236AD6
:1013BC00B3F5803F1AD023494B6823F47413226A87
:1013CC00606A024313434B601F4B01221A66FFF7FE
:1013DC002FFB04461B4B1B6813F0007F0ED1FFF74D
:1013EC0027FB001B0228F5D9032022E0154A53687D
:1013FC0023F40033A1680B435360DCE7002018E0B2
:10140C00002016E0012B16D00E4B5B6803F48031E4
:10141C00226A914211D103F47013626A93420ED185
:10142C00002006E001207047012002E0012000E0CE
:10143C00002002B070BD0120FBE70120F9E701207C
:10144C00F7E700BF00100240000042420F4B5B6800
:10145C0003F00C02082A01D00D487047C3F38342F5
:10146C000C49885C13F4803F0BD0084B5B68C3F3CA
:10147C004043094AD35C064A02FB00F0B0FBF3F090
:10148C007047064B03FB00F0704700BF0010024092
:10149C0000127A00B0230008AC23000800093D00BC
:1014AC00002800F0A08070B50D460446524B1B6816
:1014BC0003F007038B420BD24F4A136823F0070348
:1014CC000B431360136803F007038B4240F08D80CD
:1014DC00236813F0020F17D013F0040F04D0474AFF
:1014EC00536843F4E0635360236813F0080F04D08F
:1014FC00424A536843F460535360404A536823F0A4
:10150C00F003A1680B435360236813F0010F31D033
:10151C006368012B20D0022B25D0384A126812F0B8
:10152C00020F64D035494A6822F0030213434B6022
:10153C00FFF77EFA0646314B5B6803F00C036268DA
:10154C00B3EB820F16D0FFF773FA801B41F288338E
:10155C009842F0D9032045E0284A126812F4003F63
:10156C00E0D101203EE0254A126812F0007FD9D16B
:10157C00012037E0204B1B6803F00703AB420AD96C
:10158C001D4A136823F007032B431360136803F001
:10159C000703AB422DD1236813F0040F06D0174A72
:1015AC00536823F4E063E1680B435360236813F042
:1015BC00080F07D0114A536823F46053216943EA9A
:1015CC00C1035360FFF742FF0C4B5B68C3F303137B
:1015DC000B4AD35CD8400B4B18600B4B1868FFF7C9
:1015EC00E3F9002070BD012070470120FAE70120CB
:1015FC00F8E70120F6E700BF00200240001002408F
:10160C009C230008040000200C000020014B1868EB
:10161C00704700BF0400002008B5FFF7F7FF044B2C
:10162C005B68C3F30223034AD35CD84008BD00BFF8
:10163C00001002409423000808B5FFF7E7FF044BA5
:10164C005B68C3F3C223034AD35CD84008BD00BF18
:10165C00001002409423000870B582B00446036861
:10166C0013F0010F36D03F4BDB6913F0805F49D18B
:10167C003C4BDA6942F08052DA61DB6903F080534B
:10168C000193019B0125384B1B6813F4807F3BD0E1
:10169C00344B1B6A13F4407313D0626802F440722B
:1016AC009A420ED02F4A136A23F440702F49012618
:1016BC00C1F840640026C1F84064106213F0010FB9
:1016CC0036D1284A136A23F4407361680B431362C2
:1016DC00002D3ED1236813F0020F06D0214A536827
:1016EC0023F44043A1680B435360236813F0100F9D
:1016FC0034D01C4A536823F48003E1680B435360D5
:10170C0000202CE00025BEE7174A136843F48073D1
:10171C001360FFF78DF90646134B1B6813F4807F9B
:10172C00B6D1FFF785F9801B6428F5D9032016E0A4
:10173C00FFF77EF906460B4B1B6A13F0020FC0D164
:10174C00FFF776F9801B41F288339842F3D90320D6
:10175C0005E0D36923F08053D361BBE7002002B0CE
:10176C0070BD00BF001002400070004000004242FB
:10177C002DE9F04782B00546884617461E46FFF70E
:10178C0057F90A9B1B1A03EB0609FFF751F982461E
:10179C00284B1B68C3F3CB3309FB03F301932B6872
:1017AC009C6838EA04040CBF01230023BB423DD0E3
:1017BC00B6F1FF3FF3D0FFF73BF9A0EB0A00484529
:1017CC0007D2019A02B14A46019B013B0193914613
:1017DC00E5E72A68536823F0E00353606B68B3F5C0
:1017EC00827F0BD0AB6AB3F5005F14D0012385F870
:1017FC005130002385F85030032018E0AB68B3F566
:10180C00004F02D0B3F5806FECD12A68136823F037
:10181C0040031360E6E72A68136823F4005313604F
:10182C002A68136843F400531360DFE7002002B00A
:10183C00BDE8F0870400002070B582B006460C4667
:10184C00154600920B4601220221FFF791FF48B981
:10185C0000952346002280213046FFF789FF38B9D6
:10186C0002B070BD736D43F0200373650320F7E77E
:10187C00736D43F0200373650320F1E7002856D005
:10188C0010B50446436A33B94368B3F5827F05D07B
:10189C000023C36102E00023036143610023A362C0
:1018AC0094F85130002B3CD0022384F8513022683C
:1018BC00136823F040031360636803F48273A26817
:1018CC0002F404421343E26802F4006213432269F7
:1018DC0002F002021343626902F001021343A2698F
:1018EC0002F400721343E26902F038021343226AD5
:1018FC0002F080021343A26A02F4005221681343DF
:10190C000B60638B226803F0040353602268D36975
:10191C0023F40063D36100206065012384F8513007
:10192C0010BD84F850302046FEF7A4FDBCE7012022
:10193C0070472DE9F04383B00446884691461F4614
:10194C000A9DFFF775F8064694F85130DBB26268D1
:10195C00012B0AD0B2F5827F40F00581A268002AE3
:10196C0040F00581042B40F00481B8F1000F00F029
:10197C000281B9F1000F00F00081002F00F0FF8010
:10198C0094F85030012B00F0FC80012384F8503087
:10199C0094F85130DBB2042B02D0052384F851307B
:1019AC0000236365C4F83890E787A787C4F83080B4
:1019BC00E786A7862364636423681A6812F0400FD5
:1019CC0003D11A6842F040021A60E368B3F5006F65
:1019DC0011D063680BB1012F0BD1226B23681278E5
:1019EC001A73236B01332363E38E9BB2013B9BB2CF
:1019FC00E386012771E063680BB1012F0BD1226BD9
:101A0C0023681288DA60236B02332363E38E9BB264
:101A1C00013B9BB2E38601271BE023689A6812F016
:101A2C00010F0ED0E28F92B25AB1DA68A36B1A8012
:101A3C00A36B0233A363E38F9BB2013B9BB2E3879F
:101A4C000127FEF7F5FF801BA84202D3B5F1FF3F3B
:101A5C001ED1E38E9BB21BB9E38F9BB2002B62D0DD
:101A6C0023689A6812F0020FD7D0E28E92B2002A45
:101A7C00D3D0002FD1D0226B1288DA60236B0233C3
:101A8C002363E38E9BB2013B9BB2E3860027C4E742
:101A9C00012384F85130002384F85030032063E094
:101AAC0023689A6812F0010F0ED0E28F92B25AB1ED
:101ABC00DA68A36B1A70A36B0133A363E38F9BB239
:101ACC00013B9BB2E3870127FEF7B2FF831BAB42BE
:101ADC0002D3B5F1FF3F1ED1EDB1E38E9BB213B92A
:101AEC00E38F9BB2FBB123689A6812F0020FD7D038
:101AFC00E28E92B2002AD3D0002FD1D0226B127872
:101B0C001A73236B01332363E38E9BB2013B9BB2AD
:101B1C00E3860027C4E7012384F85130002384F8BE
:101B2C005030032020E0324629462046FFF784FE41
:101B3C0090B9A36833B901932368DA6801929B6862
:101B4C000193019B012384F85130002384F8503019
:101B5C00636D4BB1012007E020236365002384F8FB
:101B6C005030012000E0022003B0BDE8F0830220D9
:101B7C00FAE70220F8E70120F6E70120F4E701205C
:101B8C00F2E70220F0E7000030B4026A036A23F0A7
:101B9C00010303624568836923F073030C681C43DB
:101BAC0022F002028B6813430B4A904206D0456028
:101BBC0084614A684263036230BC704723F00803B7
:101BCC00CA681A4322F0040325F440754A692A4373
:101BDC008D691543EBE700BF002C014030B4036A5C
:101BEC00026A22F4807202624468C26922F07302B3
:101BFC000D68154323F400738A6843EA02230D4AE7
:101C0C00904206D04460C5614A68C263036230BC2E
:101C1C00704723F40063CA6843EA022323F4806309
:101C2C0024F440544A6944EA02148A6944EA0214CE
:101C3C00E8E700BF002C014030B4036A026A22F4CA
:101C4C00805202624468C26922F4E6420D6842EA9C
:101C5C00052223F400538D6843EA0533074DA8424F
:101C6C0006D04460C2614A680264036230BC7047AB
:101C7C0024F480444D6944EA8514F2E7002C0140B9
:101C8C0030B4056A046A24F010040462846924F4F4
:101C9C00407C4CEA022C2CF4704C1B039BB243EAA4
:101CAC000C0325F0A005090101F0A0012943836173
:101CBC00016230BC704730B4056A046A24F4807445
:101CCC000462C46924F0030C4CEA020C2CF0F00CF6
:101CDC001B01DBB243EA0C0325F40075090201F485
:101CEC0000712943C361016230BC704730B4056A8E
:101CFC00046A24F480540462C46924F4407C4CEAE1
:101D0C00022C2CF4704C1B039BB243EA0C0325F4FD
:101D1C000055090301F400512943C361016230BC31
:101D2C007047000003681F4A90420AD0B0F1804F00
:101D3C0007D0A2F59432904203D002F58062904213
:101D4C0003D123F070034A681343164A90420AD019
:101D5C00B0F1804F07D0A2F59432904203D002F537
:101D6C008062904203D123F44073CA68134323F07A
:101D7C0080034A69134303608B68C3620B688362F8
:101D8C00084B98420AD001234361036913F0010FF9
:101D9C0003D0036923F00103036170470B690363EC
:101DAC00F1E700BF002C014040B310B5044690F899
:101DBC003D30F3B1022384F83D30214651F8040B39
:101DCC00FFF7B0FF012384F8463084F83E3084F8E6
:101DDC003F3084F8403084F8413084F8423084F845
:101DEC00433084F8443084F8453084F83D3000208A
:101DFC0010BD80F83C30FEF7BBFCDBE701207047E0
:101E0C0040B310B5044690F83D30F3B1022384F88A
:101E1C003D30214651F8040BFFF784FF012384F871
:101E2C00463084F83E3084F83F3084F8403084F8F3
:101E3C00413084F8423084F8433084F8443084F8DC
:101E4C00453084F83D30002010BD80F83C30FEF762
:101E5C00A5FCDBE701207047002856D070B50D4675
:101E6C00044690F83D30002B4AD0022384F83D30D4
:101E7C002268936823F4804323F007039360214680
:101E8C0051F8040BFFF74EFF21688B688A690E6AC4
:101E9C002868184322F4407222F00302AB68D5F88C
:101EAC0018C043EA0C23134323F47C4323F0FC03B4
:101EBC00EA68D5F81CC042EA0C221A432B6A1B03B1
:101ECC00D5F810C043EA0C13134326F022066A68B7
:101EDC006D6942EA05123243886021688B61236880
:101EEC001A62012384F8463084F83E3084F83F307F
:101EFC0084F8423084F8433084F83D30002070BDC3
:101F0C0080F83C30FEF7C6FBAFE7012070470000BD
:101F1C0030B4036A026A22F01002026244688269D9
:101F2C0022F4E6420D6842EA052223F020038D6874
:101F3C0043EA05130C4DA84206D0446082614A68FE
:101F4C008263036230BC704723F08003CD6843EAA0
:101F5C00051323F0400324F440644D6944EA8504DE
:101F6C008D6944EA8504E8E7002C014038B590F807
:101F7C003C30012B66D004460D46012380F83C30E2
:101F8C000C2A5AD8DFE802F0075959591B595959EC
:101F9C003059595944000068FFF7F6FD22689369DF
:101FAC0043F0080393612268936923F0040393615F
:101FBC002268936929690B43936100203EE0006815
:101FCC00FFF7A6FF2268936943F4006393612268CC
:101FDC00936923F48063936122689369296943EAC6
:101FEC0001239361002029E00068FFF7F7FD2268C8
:101FFC00D36943F00803D3612268D36923F0040347
:10200C00D3612268D36929690B43D361002015E0A1
:10201C000068FFF711FE2268D36943F40063D361B3
:10202C002268D36923F48063D3612268D369296958
:10203C0043EA0123D361002000E00120002384F84F
:10204C003C3038BD0220FCE770B4056A046A24F009
:10205C00010404628469114EB0420DD0B0F1804F7E
:10206C000AD0A6F59436B04206D006F58066B0428A
:10207C0002D044F0010202E024F00304224322F0D7
:10208C00F0021B01DBB2134325F00A0201F00A0136
:10209C0011438361016270BC704700BF002C01408A
:1020AC0038B590F83C30012B5ED004460D46012328
:1020BC0080F83C300C2A52D8DFE802F0075151511D
:1020CC00195151512C5151513E00CB684A68096845
:1020DC000068FFF7B9FF2268936923F00C03936142
:1020EC0022689369A9680B439361002038E0CB68A0
:1020FC004A6809680068FFF7C3FD2268936923F4F6
:10210C004063936122689369A96843EA0123936150
:10211C00002025E0CB684A6809680068FFF7CBFD12
:10212C002268D36923F00C03D3612268D369A968B0
:10213C000B43D361002013E0CB684A680968006840
:10214C00FFF7D4FD2268D36923F44063D36122687E
:10215C00D369A96843EA0123D361002000E0012080
:10216C00002384F83C3038BD0220FCE790F83C207A
:10217C00012A2CD010B40346012280F83C20022204
:10218C0080F83D2002685068946820F0700C086854
:10219C0040EA0C0050601A680E4882420AD0B2F134
:1021AC00804F07D0A0F59430824203D000F58060B8
:1021BC00824204D124F080044968214391600122B9
:1021CC0083F83D20002083F83C0010BC70470220AF
:1021DC00704700BF002C014010B50446026813691B
:1021EC0023F44053C1680B431361836802691343A2
:1021FC0042691A430168CB6823F4B05323F00C03F3
:10220C001343CB600268536923F4407381690B4319
:10221C0053610268134B9A4220D0FFF7FDF9024636
:10222C0002EB820202EB820263689B00B2FBF3F2C8
:10223C000D48A0FB02314909642303FB11231B0148
:10224C003233A0FB03035B0903F0F00202EB011233
:10225C0003F00F03216813448B6010BDFFF7ECF9FA
:10226C000246DDE7003801401F85EB5160B310B525
:10227C00044690F8413013B3242384F8413022688B
:10228C00D36823F40053D3602046FFF7A5FF2268E0
:10229C00136923F4904313612268536923F02A03D2
:1022AC0053612268D36843F40053D3600020606408
:1022BC00202384F8413084F84230606310BD80F8EC
:1022CC004030FEF72DFBD7E701207047FEF73AF9B7
:1022DC000B480C490C4A002302E0D458C450043378
:1022EC00C4188C42F9D3094A094C002301E013604D
:1022FC000432A242FBD300F017F8FEF74DF87047FA
:10230C000000002010000020C8230008100000204E
:10231C0024020020FEE703460244934200D170479A
:10232C0003F8011BF9E7000070B500260C4D0D4CAD
:10233C00641BA410A64209D100F01AF800260A4D1D
:10234C000A4C641BA410A64205D170BD55F8043B81
:10235C0098470136EEE755F8043B98470136F2E70B
:10236C00C0230008C0230008C0230008C4230008B1
:10237C00F8B500BFF8BC08BC9E467047F8B500BF66
:08238C00F8BC08BC9E46704736
:10239400000000000102030400000000000000002F
:1023A40001020304060708090102000002030405F0
:0C23B400060708090A0B0C0D0E0F101094
:0423C00031010008DF
:0423C4000D010008FF
:1023C8008044000000127A000100000010000000A4
:04000005080022D9F4
:00000001FF
